{
  "address": "0x28E4949E228FAB211C8e4bD3354004E11F685457",
  "abi": [
    {
      "inputs": [
        {
          "internalType": "address",
          "name": "admin",
          "type": "address"
        },
        {
          "internalType": "contract WorkerRegistration",
          "name": "_workerRegistration",
          "type": "address"
        }
      ],
      "stateMutability": "nonpayable",
      "type": "constructor"
    },
    {
      "anonymous": false,
      "inputs": [
        {
          "indexed": true,
          "internalType": "address",
          "name": "who",
          "type": "address"
        },
        {
          "indexed": false,
          "internalType": "uint256",
          "name": "amount",
          "type": "uint256"
        }
      ],
      "name": "Claimed",
      "type": "event"
    },
    {
      "anonymous": false,
      "inputs": [
        {
          "indexed": true,
          "internalType": "address",
          "name": "sender",
          "type": "address"
        },
        {
          "indexed": false,
          "internalType": "uint256",
          "name": "totalReward",
          "type": "uint256"
        }
      ],
      "name": "NewReward",
      "type": "event"
    },
    {
      "anonymous": false,
      "inputs": [
        {
          "indexed": true,
          "internalType": "bytes32",
          "name": "role",
          "type": "bytes32"
        },
        {
          "indexed": true,
          "internalType": "bytes32",
          "name": "previousAdminRole",
          "type": "bytes32"
        },
        {
          "indexed": true,
          "internalType": "bytes32",
          "name": "newAdminRole",
          "type": "bytes32"
        }
      ],
      "name": "RoleAdminChanged",
      "type": "event"
    },
    {
      "anonymous": false,
      "inputs": [
        {
          "indexed": true,
          "internalType": "bytes32",
          "name": "role",
          "type": "bytes32"
        },
        {
          "indexed": true,
          "internalType": "address",
          "name": "account",
          "type": "address"
        },
        {
          "indexed": true,
          "internalType": "address",
          "name": "sender",
          "type": "address"
        }
      ],
      "name": "RoleGranted",
      "type": "event"
    },
    {
      "anonymous": false,
      "inputs": [
        {
          "indexed": true,
          "internalType": "bytes32",
          "name": "role",
          "type": "bytes32"
        },
        {
          "indexed": true,
          "internalType": "address",
          "name": "account",
          "type": "address"
        },
        {
          "indexed": true,
          "internalType": "address",
          "name": "sender",
          "type": "address"
        }
      ],
      "name": "RoleRevoked",
      "type": "event"
    },
    {
      "inputs": [],
      "name": "DEFAULT_ADMIN_ROLE",
      "outputs": [
        {
          "internalType": "bytes32",
          "name": "",
          "type": "bytes32"
        }
      ],
      "stateMutability": "view",
      "type": "function"
    },
    {
      "inputs": [],
      "name": "REWARDS_DISTRIBUTOR_ROLE",
      "outputs": [
        {
          "internalType": "bytes32",
          "name": "",
          "type": "bytes32"
        }
      ],
      "stateMutability": "view",
      "type": "function"
    },
    {
      "inputs": [],
      "name": "REWARDS_TREASURY_ROLE",
      "outputs": [
        {
          "internalType": "bytes32",
          "name": "",
          "type": "bytes32"
        }
      ],
      "stateMutability": "view",
      "type": "function"
    },
    {
      "inputs": [
        {
          "internalType": "address",
          "name": "worker",
          "type": "address"
        }
      ],
      "name": "claim",
      "outputs": [
        {
          "internalType": "uint256",
          "name": "",
          "type": "uint256"
        }
      ],
      "stateMutability": "nonpayable",
      "type": "function"
    },
    {
      "inputs": [
        {
          "internalType": "address",
          "name": "",
          "type": "address"
        }
      ],
      "name": "claimable",
      "outputs": [
        {
          "internalType": "uint256",
          "name": "",
          "type": "uint256"
        }
      ],
      "stateMutability": "view",
      "type": "function"
    },
    {
      "inputs": [
        {
          "internalType": "address[]",
          "name": "recipients",
          "type": "address[]"
        },
        {
          "internalType": "uint256[]",
          "name": "amounts",
          "type": "uint256[]"
        }
      ],
      "name": "distribute",
      "outputs": [],
      "stateMutability": "nonpayable",
      "type": "function"
    },
    {
      "inputs": [
        {
          "internalType": "bytes32",
          "name": "role",
          "type": "bytes32"
        }
      ],
      "name": "getRoleAdmin",
      "outputs": [
        {
          "internalType": "bytes32",
          "name": "",
          "type": "bytes32"
        }
      ],
      "stateMutability": "view",
      "type": "function"
    },
    {
      "inputs": [
        {
          "internalType": "bytes32",
          "name": "role",
          "type": "bytes32"
        },
        {
          "internalType": "address",
          "name": "account",
          "type": "address"
        }
      ],
      "name": "grantRole",
      "outputs": [],
      "stateMutability": "nonpayable",
      "type": "function"
    },
    {
      "inputs": [
        {
          "internalType": "bytes32",
          "name": "role",
          "type": "bytes32"
        },
        {
          "internalType": "address",
          "name": "account",
          "type": "address"
        }
      ],
      "name": "hasRole",
      "outputs": [
        {
          "internalType": "bool",
          "name": "",
          "type": "bool"
        }
      ],
      "stateMutability": "view",
      "type": "function"
    },
    {
      "inputs": [],
      "name": "nextEpochStartBlock",
      "outputs": [
        {
          "internalType": "uint256",
          "name": "",
          "type": "uint256"
        }
      ],
      "stateMutability": "view",
      "type": "function"
    },
    {
      "inputs": [
        {
          "internalType": "bytes32",
          "name": "role",
          "type": "bytes32"
        },
        {
          "internalType": "address",
          "name": "account",
          "type": "address"
        }
      ],
      "name": "renounceRole",
      "outputs": [],
      "stateMutability": "nonpayable",
      "type": "function"
    },
    {
      "inputs": [
        {
          "internalType": "bytes32",
          "name": "role",
          "type": "bytes32"
        },
        {
          "internalType": "address",
          "name": "account",
          "type": "address"
        }
      ],
      "name": "revokeRole",
      "outputs": [],
      "stateMutability": "nonpayable",
      "type": "function"
    },
    {
      "inputs": [
        {
          "internalType": "bytes4",
          "name": "interfaceId",
          "type": "bytes4"
        }
      ],
      "name": "supportsInterface",
      "outputs": [
        {
          "internalType": "bool",
          "name": "",
          "type": "bool"
        }
      ],
      "stateMutability": "view",
      "type": "function"
    },
    {
      "inputs": [],
      "name": "workerRegistration",
      "outputs": [
        {
          "internalType": "contract WorkerRegistration",
          "name": "",
          "type": "address"
        }
      ],
      "stateMutability": "view",
      "type": "function"
    }
  ],
  "transactionHash": "0x6441a9f6c900cb7b4129f1bd14aabd1e35413534a0ff55bb3da3244805766f59",
  "args": [
    "0xedFa74C6bC620CC992d4D2C9A27803748B8f5a64",
    "0x0EddCcbFFadc2101e09d6efA5E5Be2D15ee44a5B"
  ],
  "numDeployments": 2,
  "solcInputHash": "8435573c76e29e88148da4148ee5ff92",
  "bytecode": "0x60806040523480156200001157600080fd5b5060405162001c4938038062001c498339818101604052810190620000379190620002bd565b80600360006101000a81548173ffffffffffffffffffffffffffffffffffffffff021916908373ffffffffffffffffffffffffffffffffffffffff1602179055506200008d6000801b836200009560201b60201c565b505062000304565b620000a78282620000ab60201b60201c565b5050565b620000bd82826200019c60201b60201c565b6200019857600160008084815260200190815260200160002060000160008373ffffffffffffffffffffffffffffffffffffffff1673ffffffffffffffffffffffffffffffffffffffff16815260200190815260200160002060006101000a81548160ff0219169083151502179055506200013d6200020660201b60201c565b73ffffffffffffffffffffffffffffffffffffffff168173ffffffffffffffffffffffffffffffffffffffff16837f2f8788117e7eff1d82e926ec794901d17c78024a50270940304540a733656f0d60405160405180910390a45b5050565b600080600084815260200190815260200160002060000160008373ffffffffffffffffffffffffffffffffffffffff1673ffffffffffffffffffffffffffffffffffffffff16815260200190815260200160002060009054906101000a900460ff16905092915050565b600033905090565b600080fd5b600073ffffffffffffffffffffffffffffffffffffffff82169050919050565b6000620002408262000213565b9050919050565b620002528162000233565b81146200025e57600080fd5b50565b600081519050620002728162000247565b92915050565b6000620002858262000233565b9050919050565b620002978162000278565b8114620002a357600080fd5b50565b600081519050620002b7816200028c565b92915050565b60008060408385031215620002d757620002d66200020e565b5b6000620002e78582860162000261565b9250506020620002fa85828601620002a6565b9150509250929050565b61193580620003146000396000f3fe608060405234801561001057600080fd5b50600436106100ea5760003560e01c8063402914f51161008c578063b5b0678111610066578063b5b067811461026f578063c34c22891461028d578063d547741f146102ab578063d9ffb4fc146102c7576100ea565b8063402914f5146101f157806391d1485414610221578063a217fddf14610251576100ea565b8063268ae2a1116100c8578063268ae2a11461017f5780632929abe61461019d5780632f2ff15d146101b957806336568abe146101d5576100ea565b806301ffc9a7146100ef5780631e83409a1461011f578063248a9ca31461014f575b600080fd5b61010960048036038101906101049190610e71565b6102e5565b6040516101169190610eb9565b60405180910390f35b61013960048036038101906101349190610f32565b61035f565b6040516101469190610f78565b60405180910390f35b61016960048036038101906101649190610fc9565b61046c565b6040516101769190611005565b60405180910390f35b61018761048b565b6040516101949190610f78565b60405180910390f35b6101b760048036038101906101b29190611268565b610491565b005b6101d360048036038101906101ce91906112e0565b610714565b005b6101ef60048036038101906101ea91906112e0565b610735565b005b61020b60048036038101906102069190610f32565b6107b8565b6040516102189190610f78565b60405180910390f35b61023b600480360381019061023691906112e0565b6107d0565b6040516102489190610eb9565b60405180910390f35b61025961083a565b6040516102669190611005565b60405180910390f35b610277610841565b6040516102849190611005565b60405180910390f35b610295610865565b6040516102a29190611005565b60405180910390f35b6102c560048036038101906102c091906112e0565b610889565b005b6102cf6108aa565b6040516102dc919061137f565b60405180910390f35b60007f7965db0b000000000000000000000000000000000000000000000000000000007bffffffffffffffffffffffffffffffffffffffffffffffffffffffff1916827bffffffffffffffffffffffffffffffffffffffffffffffffffffffff191614806103585750610357826108d0565b5b9050919050565b60007f1b79d793df9d39a01a8803af5b473fcb035fc3f70eaeb117debd77529e6aefe861038b8161093a565b6000600160008573ffffffffffffffffffffffffffffffffffffffff1673ffffffffffffffffffffffffffffffffffffffff1681526020019081526020016000205490506000600160008673ffffffffffffffffffffffffffffffffffffffff1673ffffffffffffffffffffffffffffffffffffffff168152602001908152602001600020819055508373ffffffffffffffffffffffffffffffffffffffff167fd8138f8a3f377c5259ca548e70e4c2de94f129f5a11036a15b69513cba2b426a8260405161045a9190610f78565b60405180910390a28092505050919050565b6000806000838152602001908152602001600020600101549050919050565b60025481565b7f9df62d436bfc9f3be4953ab398f3aa862316b013d490e2138c80b4b2eadeabd76104bb8161093a565b81518351146104ff576040517f08c379a00000000000000000000000000000000000000000000000000000000081526004016104f69061141d565b60405180910390fd5b600254431015610544576040517f08c379a000000000000000000000000000000000000000000000000000000000815260040161053b90611489565b60405180910390fd5b6000805b845181101561061657838181518110610564576105636114a9565b5b602002602001015160016000878481518110610583576105826114a9565b5b602002602001015173ffffffffffffffffffffffffffffffffffffffff1673ffffffffffffffffffffffffffffffffffffffff16815260200190815260200160002060008282546105d49190611507565b925050819055508381815181106105ee576105ed6114a9565b5b6020026020010151826106019190611507565b9150808061060e9061153b565b915050610548565b50600360009054906101000a900473ffffffffffffffffffffffffffffffffffffffff1673ffffffffffffffffffffffffffffffffffffffff1663aea0e78b6040518163ffffffff1660e01b8152600401602060405180830381865afa158015610684573d6000803e3d6000fd5b505050506040513d601f19601f820116820180604052508101906106a891906115cb565b6fffffffffffffffffffffffffffffffff166002819055503373ffffffffffffffffffffffffffffffffffffffff167f01f132e60506239e8c7aeeb029ac2aa3a506bd76fda96ffa1f02e2b193399905826040516107069190610f78565b60405180910390a250505050565b61071d8261046c565b6107268161093a565b610730838361094e565b505050565b61073d610a2e565b73ffffffffffffffffffffffffffffffffffffffff168173ffffffffffffffffffffffffffffffffffffffff16146107aa576040517f08c379a00000000000000000000000000000000000000000000000000000000081526004016107a19061166a565b60405180910390fd5b6107b48282610a36565b5050565b60016020528060005260406000206000915090505481565b600080600084815260200190815260200160002060000160008373ffffffffffffffffffffffffffffffffffffffff1673ffffffffffffffffffffffffffffffffffffffff16815260200190815260200160002060009054906101000a900460ff16905092915050565b6000801b81565b7f1b79d793df9d39a01a8803af5b473fcb035fc3f70eaeb117debd77529e6aefe881565b7f9df62d436bfc9f3be4953ab398f3aa862316b013d490e2138c80b4b2eadeabd781565b6108928261046c565b61089b8161093a565b6108a58383610a36565b505050565b600360009054906101000a900473ffffffffffffffffffffffffffffffffffffffff1681565b60007f01ffc9a7000000000000000000000000000000000000000000000000000000007bffffffffffffffffffffffffffffffffffffffffffffffffffffffff1916827bffffffffffffffffffffffffffffffffffffffffffffffffffffffff1916149050919050565b61094b81610946610a2e565b610b17565b50565b61095882826107d0565b610a2a57600160008084815260200190815260200160002060000160008373ffffffffffffffffffffffffffffffffffffffff1673ffffffffffffffffffffffffffffffffffffffff16815260200190815260200160002060006101000a81548160ff0219169083151502179055506109cf610a2e565b73ffffffffffffffffffffffffffffffffffffffff168173ffffffffffffffffffffffffffffffffffffffff16837f2f8788117e7eff1d82e926ec794901d17c78024a50270940304540a733656f0d60405160405180910390a45b5050565b600033905090565b610a4082826107d0565b15610b1357600080600084815260200190815260200160002060000160008373ffffffffffffffffffffffffffffffffffffffff1673ffffffffffffffffffffffffffffffffffffffff16815260200190815260200160002060006101000a81548160ff021916908315150217905550610ab8610a2e565b73ffffffffffffffffffffffffffffffffffffffff168173ffffffffffffffffffffffffffffffffffffffff16837ff6391f5c32d9c69d2a47ea670b442974b53935d1edc7fd64eb21e047a839171b60405160405180910390a45b5050565b610b2182826107d0565b610b9857610b2e81610b9c565b610b3c8360001c6020610bc9565b604051602001610b4d929190611793565b6040516020818303038152906040526040517f08c379a0000000000000000000000000000000000000000000000000000000008152600401610b8f9190611806565b60405180910390fd5b5050565b6060610bc28273ffffffffffffffffffffffffffffffffffffffff16601460ff16610bc9565b9050919050565b606060006002836002610bdc9190611828565b610be69190611507565b67ffffffffffffffff811115610bff57610bfe611036565b5b6040519080825280601f01601f191660200182016040528015610c315781602001600182028036833780820191505090505b5090507f300000000000000000000000000000000000000000000000000000000000000081600081518110610c6957610c686114a9565b5b60200101907effffffffffffffffffffffffffffffffffffffffffffffffffffffffffffff1916908160001a9053507f780000000000000000000000000000000000000000000000000000000000000081600181518110610ccd57610ccc6114a9565b5b60200101907effffffffffffffffffffffffffffffffffffffffffffffffffffffffffffff1916908160001a90535060006001846002610d0d9190611828565b610d179190611507565b90505b6001811115610db7577f3031323334353637383961626364656600000000000000000000000000000000600f861660108110610d5957610d586114a9565b5b1a60f81b828281518110610d7057610d6f6114a9565b5b60200101907effffffffffffffffffffffffffffffffffffffffffffffffffffffffffffff1916908160001a905350600485901c945080610db09061186a565b9050610d1a565b5060008414610dfb576040517f08c379a0000000000000000000000000000000000000000000000000000000008152600401610df2906118df565b60405180910390fd5b8091505092915050565b6000604051905090565b600080fd5b600080fd5b60007fffffffff0000000000000000000000000000000000000000000000000000000082169050919050565b610e4e81610e19565b8114610e5957600080fd5b50565b600081359050610e6b81610e45565b92915050565b600060208284031215610e8757610e86610e0f565b5b6000610e9584828501610e5c565b91505092915050565b60008115159050919050565b610eb381610e9e565b82525050565b6000602082019050610ece6000830184610eaa565b92915050565b600073ffffffffffffffffffffffffffffffffffffffff82169050919050565b6000610eff82610ed4565b9050919050565b610f0f81610ef4565b8114610f1a57600080fd5b50565b600081359050610f2c81610f06565b92915050565b600060208284031215610f4857610f47610e0f565b5b6000610f5684828501610f1d565b91505092915050565b6000819050919050565b610f7281610f5f565b82525050565b6000602082019050610f8d6000830184610f69565b92915050565b6000819050919050565b610fa681610f93565b8114610fb157600080fd5b50565b600081359050610fc381610f9d565b92915050565b600060208284031215610fdf57610fde610e0f565b5b6000610fed84828501610fb4565b91505092915050565b610fff81610f93565b82525050565b600060208201905061101a6000830184610ff6565b92915050565b600080fd5b6000601f19601f8301169050919050565b7f4e487b7100000000000000000000000000000000000000000000000000000000600052604160045260246000fd5b61106e82611025565b810181811067ffffffffffffffff8211171561108d5761108c611036565b5b80604052505050565b60006110a0610e05565b90506110ac8282611065565b919050565b600067ffffffffffffffff8211156110cc576110cb611036565b5b602082029050602081019050919050565b600080fd5b60006110f56110f0846110b1565b611096565b90508083825260208201905060208402830185811115611118576111176110dd565b5b835b81811015611141578061112d8882610f1d565b84526020840193505060208101905061111a565b5050509392505050565b600082601f8301126111605761115f611020565b5b81356111708482602086016110e2565b91505092915050565b600067ffffffffffffffff82111561119457611193611036565b5b602082029050602081019050919050565b6111ae81610f5f565b81146111b957600080fd5b50565b6000813590506111cb816111a5565b92915050565b60006111e46111df84611179565b611096565b90508083825260208201905060208402830185811115611207576112066110dd565b5b835b81811015611230578061121c88826111bc565b845260208401935050602081019050611209565b5050509392505050565b600082601f83011261124f5761124e611020565b5b813561125f8482602086016111d1565b91505092915050565b6000806040838503121561127f5761127e610e0f565b5b600083013567ffffffffffffffff81111561129d5761129c610e14565b5b6112a98582860161114b565b925050602083013567ffffffffffffffff8111156112ca576112c9610e14565b5b6112d68582860161123a565b9150509250929050565b600080604083850312156112f7576112f6610e0f565b5b600061130585828601610fb4565b925050602061131685828601610f1d565b9150509250929050565b6000819050919050565b600061134561134061133b84610ed4565b611320565b610ed4565b9050919050565b60006113578261132a565b9050919050565b60006113698261134c565b9050919050565b6113798161135e565b82525050565b60006020820190506113946000830184611370565b92915050565b600082825260208201905092915050565b7f526563697069656e747320616e6420616d6f756e7473206c656e677468206d6960008201527f736d617463680000000000000000000000000000000000000000000000000000602082015250565b600061140760268361139a565b9150611412826113ab565b604082019050919050565b60006020820190508181036000830152611436816113fa565b9050919050565b7f45706f6368206e6f7420656e6465640000000000000000000000000000000000600082015250565b6000611473600f8361139a565b915061147e8261143d565b602082019050919050565b600060208201905081810360008301526114a281611466565b9050919050565b7f4e487b7100000000000000000000000000000000000000000000000000000000600052603260045260246000fd5b7f4e487b7100000000000000000000000000000000000000000000000000000000600052601160045260246000fd5b600061151282610f5f565b915061151d83610f5f565b9250828201905080821115611535576115346114d8565b5b92915050565b600061154682610f5f565b91507fffffffffffffffffffffffffffffffffffffffffffffffffffffffffffffffff8203611578576115776114d8565b5b600182019050919050565b60006fffffffffffffffffffffffffffffffff82169050919050565b6115a881611583565b81146115b357600080fd5b50565b6000815190506115c58161159f565b92915050565b6000602082840312156115e1576115e0610e0f565b5b60006115ef848285016115b6565b91505092915050565b7f416363657373436f6e74726f6c3a2063616e206f6e6c792072656e6f756e636560008201527f20726f6c657320666f722073656c660000000000000000000000000000000000602082015250565b6000611654602f8361139a565b915061165f826115f8565b604082019050919050565b6000602082019050818103600083015261168381611647565b9050919050565b600081905092915050565b7f416363657373436f6e74726f6c3a206163636f756e7420000000000000000000600082015250565b60006116cb60178361168a565b91506116d682611695565b601782019050919050565b600081519050919050565b60005b8381101561170a5780820151818401526020810190506116ef565b60008484015250505050565b6000611721826116e1565b61172b818561168a565b935061173b8185602086016116ec565b80840191505092915050565b7f206973206d697373696e6720726f6c6520000000000000000000000000000000600082015250565b600061177d60118361168a565b915061178882611747565b601182019050919050565b600061179e826116be565b91506117aa8285611716565b91506117b582611770565b91506117c18284611716565b91508190509392505050565b60006117d8826116e1565b6117e2818561139a565b93506117f28185602086016116ec565b6117fb81611025565b840191505092915050565b6000602082019050818103600083015261182081846117cd565b905092915050565b600061183382610f5f565b915061183e83610f5f565b925082820261184c81610f5f565b91508282048414831517611863576118626114d8565b5b5092915050565b600061187582610f5f565b915060008203611888576118876114d8565b5b600182039050919050565b7f537472696e67733a20686578206c656e67746820696e73756666696369656e74600082015250565b60006118c960208361139a565b91506118d482611893565b602082019050919050565b600060208201905081810360008301526118f8816118bc565b905091905056fea26469706673582212203ddcd3a47c03710530138922652e0ec89d6f5359637460a03985c1af195671bf64736f6c63430008120033",
  "devdoc": {
    "events": {
      "RoleAdminChanged(bytes32,bytes32,bytes32)": {
        "details": "Emitted when `newAdminRole` is set as ``role``'s admin role, replacing `previousAdminRole` `DEFAULT_ADMIN_ROLE` is the starting admin for all roles, despite {RoleAdminChanged} not being emitted signaling this. _Available since v3.1._"
      },
      "RoleGranted(bytes32,address,address)": {
        "details": "Emitted when `account` is granted `role`. `sender` is the account that originated the contract call, an admin role bearer except when using {AccessControl-_setupRole}."
      },
      "RoleRevoked(bytes32,address,address)": {
        "details": "Emitted when `account` is revoked `role`. `sender` is the account that originated the contract call:   - if using `revokeRole`, it is the admin role bearer   - if using `renounceRole`, it is the role bearer (i.e. `account`)"
      }
    },
    "kind": "dev",
    "methods": {
      "getRoleAdmin(bytes32)": {
        "details": "Returns the admin role that controls `role`. See {grantRole} and {revokeRole}. To change a role's admin, use {_setRoleAdmin}."
      },
      "grantRole(bytes32,address)": {
        "details": "Grants `role` to `account`. If `account` had not been already granted `role`, emits a {RoleGranted} event. Requirements: - the caller must have ``role``'s admin role. May emit a {RoleGranted} event."
      },
      "hasRole(bytes32,address)": {
        "details": "Returns `true` if `account` has been granted `role`."
      },
      "renounceRole(bytes32,address)": {
        "details": "Revokes `role` from the calling account. Roles are often managed via {grantRole} and {revokeRole}: this function's purpose is to provide a mechanism for accounts to lose their privileges if they are compromised (such as when a trusted device is misplaced). If the calling account had been revoked `role`, emits a {RoleRevoked} event. Requirements: - the caller must be `account`. May emit a {RoleRevoked} event."
      },
      "revokeRole(bytes32,address)": {
        "details": "Revokes `role` from `account`. If `account` had been granted `role`, emits a {RoleRevoked} event. Requirements: - the caller must have ``role``'s admin role. May emit a {RoleRevoked} event."
      },
      "supportsInterface(bytes4)": {
        "details": "See {IERC165-supportsInterface}."
      }
    },
    "version": 1
  },
  "userdoc": {
    "kind": "user",
    "methods": {},
    "version": 1
  },
  "storageLayout": {
    "storage": [
      {
        "astId": 24,
        "contract": "src/RewardsDistribution.sol:RewardsDistribution",
        "label": "_roles",
        "offset": 0,
        "slot": "0",
        "type": "t_mapping(t_bytes32,t_struct(RoleData)19_storage)"
      },
      {
        "astId": 2963,
        "contract": "src/RewardsDistribution.sol:RewardsDistribution",
        "label": "claimable",
        "offset": 0,
        "slot": "1",
        "type": "t_mapping(t_address,t_uint256)"
      },
      {
        "astId": 2965,
        "contract": "src/RewardsDistribution.sol:RewardsDistribution",
        "label": "nextEpochStartBlock",
        "offset": 0,
        "slot": "2",
        "type": "t_uint256"
      },
      {
        "astId": 2968,
        "contract": "src/RewardsDistribution.sol:RewardsDistribution",
        "label": "workerRegistration",
        "offset": 0,
        "slot": "3",
        "type": "t_contract(WorkerRegistration)3885"
      }
    ],
    "types": {
      "t_address": {
        "encoding": "inplace",
        "label": "address",
        "numberOfBytes": "20"
      },
      "t_bool": {
        "encoding": "inplace",
        "label": "bool",
        "numberOfBytes": "1"
      },
      "t_bytes32": {
        "encoding": "inplace",
        "label": "bytes32",
        "numberOfBytes": "32"
      },
      "t_contract(WorkerRegistration)3885": {
        "encoding": "inplace",
        "label": "contract WorkerRegistration",
        "numberOfBytes": "20"
      },
      "t_mapping(t_address,t_bool)": {
        "encoding": "mapping",
        "key": "t_address",
        "label": "mapping(address => bool)",
        "numberOfBytes": "32",
        "value": "t_bool"
      },
      "t_mapping(t_address,t_uint256)": {
        "encoding": "mapping",
        "key": "t_address",
        "label": "mapping(address => uint256)",
        "numberOfBytes": "32",
        "value": "t_uint256"
      },
      "t_mapping(t_bytes32,t_struct(RoleData)19_storage)": {
        "encoding": "mapping",
        "key": "t_bytes32",
        "label": "mapping(bytes32 => struct AccessControl.RoleData)",
        "numberOfBytes": "32",
        "value": "t_struct(RoleData)19_storage"
      },
      "t_struct(RoleData)19_storage": {
        "encoding": "inplace",
        "label": "struct AccessControl.RoleData",
        "members": [
          {
            "astId": 16,
            "contract": "src/RewardsDistribution.sol:RewardsDistribution",
            "label": "members",
            "offset": 0,
            "slot": "0",
            "type": "t_mapping(t_address,t_bool)"
          },
          {
            "astId": 18,
            "contract": "src/RewardsDistribution.sol:RewardsDistribution",
            "label": "adminRole",
            "offset": 0,
            "slot": "1",
            "type": "t_bytes32"
          }
        ],
        "numberOfBytes": "64"
      },
      "t_uint256": {
        "encoding": "inplace",
        "label": "uint256",
        "numberOfBytes": "32"
      }
    }
  }
}