{
  "address": "0x89a247b3b3dC12ce5398518b6E42eD58f860A04b",
  "abi": [
    {
      "inputs": [
        {
          "internalType": "contract WorkerRegistration",
          "name": "_workerRegistration",
          "type": "address"
        }
      ],
      "stateMutability": "nonpayable",
      "type": "constructor"
    },
    {
      "inputs": [
        {
          "internalType": "uint256",
          "name": "target",
          "type": "uint256"
        },
        {
          "internalType": "uint256",
          "name": "actual",
          "type": "uint256"
        }
      ],
      "name": "apy",
      "outputs": [
        {
          "internalType": "uint256",
          "name": "",
          "type": "uint256"
        }
      ],
      "stateMutability": "pure",
      "type": "function"
    },
    {
      "inputs": [
        {
          "internalType": "uint256",
          "name": "targetGb",
          "type": "uint256"
        }
      ],
      "name": "currentApy",
      "outputs": [
        {
          "internalType": "uint256",
          "name": "",
          "type": "uint256"
        }
      ],
      "stateMutability": "view",
      "type": "function"
    },
    {
      "inputs": [
        {
          "internalType": "uint256",
          "name": "targetGb",
          "type": "uint256"
        }
      ],
      "name": "epochReward",
      "outputs": [
        {
          "internalType": "uint256",
          "name": "",
          "type": "uint256"
        }
      ],
      "stateMutability": "view",
      "type": "function"
    },
    {
      "inputs": [],
      "name": "workerRegistration",
      "outputs": [
        {
          "internalType": "contract WorkerRegistration",
          "name": "",
          "type": "address"
        }
      ],
      "stateMutability": "view",
      "type": "function"
    }
  ],
  "transactionHash": "0x55afc9794656d36c690ca57653b171d01f3e1708842ac2586f84060df9d11b8f",
  "args": [
    "0x0EddCcbFFadc2101e09d6efA5E5Be2D15ee44a5B"
  ],
  "numDeployments": 2,
  "solcInputHash": "8435573c76e29e88148da4148ee5ff92",
  "bytecode": "0x60806040526301e1338060015534801561001857600080fd5b50604051610a74380380610a74833981810160405281019061003a91906100f5565b806000806101000a81548173ffffffffffffffffffffffffffffffffffffffff021916908373ffffffffffffffffffffffffffffffffffffffff16021790555050610122565b600080fd5b600073ffffffffffffffffffffffffffffffffffffffff82169050919050565b60006100b082610085565b9050919050565b60006100c2826100a5565b9050919050565b6100d2816100b7565b81146100dd57600080fd5b50565b6000815190506100ef816100c9565b92915050565b60006020828403121561010b5761010a610080565b5b6000610119848285016100e0565b91505092915050565b610943806101316000396000f3fe608060405234801561001057600080fd5b506004361061004c5760003560e01c806326b470621461005157806330da52401461008157806349dead52146100b1578063d9ffb4fc146100e1575b600080fd5b61006b600480360381019061006691906104ad565b6100ff565b60405161007891906104e9565b60405180910390f35b61009b600480360381019061009691906104ad565b610239565b6040516100a891906104e9565b60405180910390f35b6100cb60048036038101906100c69190610504565b6103a9565b6040516100d891906104e9565b60405180910390f35b6100e961044e565b6040516100f691906105c3565b60405180910390f35b60006102328260008054906101000a900473ffffffffffffffffffffffffffffffffffffffff1673ffffffffffffffffffffffffffffffffffffffff16632b5d15296040518163ffffffff1660e01b8152600401602060405180830381865afa158015610170573d6000803e3d6000fd5b505050506040513d601f19601f8201168201806040525081019061019491906105f3565b60008054906101000a900473ffffffffffffffffffffffffffffffffffffffff1673ffffffffffffffffffffffffffffffffffffffff16633e5568276040518163ffffffff1660e01b8152600401602060405180830381865afa1580156101ff573d6000803e3d6000fd5b505050506040513d601f19601f8201168201806040525081019061022391906105f3565b61022d919061064f565b6103a9565b9050919050565b600061271060015460008054906101000a900473ffffffffffffffffffffffffffffffffffffffff1673ffffffffffffffffffffffffffffffffffffffff166357d775f86040518163ffffffff1660e01b8152600401602060405180830381865afa1580156102ac573d6000803e3d6000fd5b505050506040513d601f19601f820116820180604052508101906102d091906106d9565b6fffffffffffffffffffffffffffffffff1660008054906101000a900473ffffffffffffffffffffffffffffffffffffffff1673ffffffffffffffffffffffffffffffffffffffff1663c760e6b06040518163ffffffff1660e01b8152600401602060405180830381865afa15801561034d573d6000803e3d6000fd5b505050506040513d601f19601f8201168201806040525081019061037191906105f3565b61037a866100ff565b610384919061064f565b61038e919061064f565b6103989190610735565b6103a29190610735565b9050919050565b6000808361271084866103bc9190610770565b6103c691906107b3565b6103d0919061082b565b905061232881126103e657611b58915050610448565b60008112610410576002816103fb9190610735565b6109c46104089190610895565b915050610448565b600060148261041f919061082b565b6107d061042c91906108c9565b9050600081121561044257600092505050610448565b80925050505b92915050565b60008054906101000a900473ffffffffffffffffffffffffffffffffffffffff1681565b600080fd5b6000819050919050565b61048a81610477565b811461049557600080fd5b50565b6000813590506104a781610481565b92915050565b6000602082840312156104c3576104c2610472565b5b60006104d184828501610498565b91505092915050565b6104e381610477565b82525050565b60006020820190506104fe60008301846104da565b92915050565b6000806040838503121561051b5761051a610472565b5b600061052985828601610498565b925050602061053a85828601610498565b9150509250929050565b600073ffffffffffffffffffffffffffffffffffffffff82169050919050565b6000819050919050565b600061058961058461057f84610544565b610564565b610544565b9050919050565b600061059b8261056e565b9050919050565b60006105ad82610590565b9050919050565b6105bd816105a2565b82525050565b60006020820190506105d860008301846105b4565b92915050565b6000815190506105ed81610481565b92915050565b60006020828403121561060957610608610472565b5b6000610617848285016105de565b91505092915050565b7f4e487b7100000000000000000000000000000000000000000000000000000000600052601160045260246000fd5b600061065a82610477565b915061066583610477565b925082820261067381610477565b9150828204841483151761068a57610689610620565b5b5092915050565b60006fffffffffffffffffffffffffffffffff82169050919050565b6106b681610691565b81146106c157600080fd5b50565b6000815190506106d3816106ad565b92915050565b6000602082840312156106ef576106ee610472565b5b60006106fd848285016106c4565b91505092915050565b7f4e487b7100000000000000000000000000000000000000000000000000000000600052601260045260246000fd5b600061074082610477565b915061074b83610477565b92508261075b5761075a610706565b5b828204905092915050565b6000819050919050565b600061077b82610766565b915061078683610766565b92508282039050818112600084121682821360008512151617156107ad576107ac610620565b5b92915050565b60006107be82610766565b91506107c983610766565b92508282026107d781610766565b91507f8000000000000000000000000000000000000000000000000000000000000000841460008412161561080f5761080e610620565b5b828205841483151761082457610823610620565b5b5092915050565b600061083682610766565b915061084183610766565b92508261085157610850610706565b5b600160000383147f80000000000000000000000000000000000000000000000000000000000000008314161561088a57610889610620565b5b828205905092915050565b60006108a082610477565b91506108ab83610477565b92508282019050808211156108c3576108c2610620565b5b92915050565b60006108d482610766565b91506108df83610766565b92508282019050828112156000831216838212600084121516171561090757610906610620565b5b9291505056fea26469706673582212204ed052f676028c5e4a6ac3b1ce79676af58df72aaac7a7d027c5cd0a95e1cfbf64736f6c63430008120033",
  "devdoc": {
    "kind": "dev",
    "methods": {},
    "version": 1
  },
  "userdoc": {
    "kind": "user",
    "methods": {},
    "version": 1
  },
  "storageLayout": {
    "storage": [
      {
        "astId": 2728,
        "contract": "src/RewardCalculation.sol:RewardCalculation",
        "label": "workerRegistration",
        "offset": 0,
        "slot": "0",
        "type": "t_contract(WorkerRegistration)3885"
      },
      {
        "astId": 2731,
        "contract": "src/RewardCalculation.sol:RewardCalculation",
        "label": "year",
        "offset": 0,
        "slot": "1",
        "type": "t_uint256"
      }
    ],
    "types": {
      "t_contract(WorkerRegistration)3885": {
        "encoding": "inplace",
        "label": "contract WorkerRegistration",
        "numberOfBytes": "20"
      },
      "t_uint256": {
        "encoding": "inplace",
        "label": "uint256",
        "numberOfBytes": "32"
      }
    }
  }
}