{
  "address": "0x9Cd2c7E5784bCb910E382cfd1f2E696F72d70011",
  "abi": [
    {
      "inputs": [
        {
          "internalType": "address",
          "name": "admin",
          "type": "address"
        },
        {
          "internalType": "contract IERC20",
          "name": "_rewardToken",
          "type": "address"
        }
      ],
      "stateMutability": "nonpayable",
      "type": "constructor"
    },
    {
      "anonymous": false,
      "inputs": [
        {
          "indexed": true,
          "internalType": "bytes32",
          "name": "role",
          "type": "bytes32"
        },
        {
          "indexed": true,
          "internalType": "bytes32",
          "name": "previousAdminRole",
          "type": "bytes32"
        },
        {
          "indexed": true,
          "internalType": "bytes32",
          "name": "newAdminRole",
          "type": "bytes32"
        }
      ],
      "name": "RoleAdminChanged",
      "type": "event"
    },
    {
      "anonymous": false,
      "inputs": [
        {
          "indexed": true,
          "internalType": "bytes32",
          "name": "role",
          "type": "bytes32"
        },
        {
          "indexed": true,
          "internalType": "address",
          "name": "account",
          "type": "address"
        },
        {
          "indexed": true,
          "internalType": "address",
          "name": "sender",
          "type": "address"
        }
      ],
      "name": "RoleGranted",
      "type": "event"
    },
    {
      "anonymous": false,
      "inputs": [
        {
          "indexed": true,
          "internalType": "bytes32",
          "name": "role",
          "type": "bytes32"
        },
        {
          "indexed": true,
          "internalType": "address",
          "name": "account",
          "type": "address"
        },
        {
          "indexed": true,
          "internalType": "address",
          "name": "sender",
          "type": "address"
        }
      ],
      "name": "RoleRevoked",
      "type": "event"
    },
    {
      "inputs": [],
      "name": "DEFAULT_ADMIN_ROLE",
      "outputs": [
        {
          "internalType": "bytes32",
          "name": "",
          "type": "bytes32"
        }
      ],
      "stateMutability": "view",
      "type": "function"
    },
    {
      "inputs": [
        {
          "internalType": "contract IRewardsDistribution",
          "name": "rewardDistribution",
          "type": "address"
        }
      ],
      "name": "claim",
      "outputs": [],
      "stateMutability": "nonpayable",
      "type": "function"
    },
    {
      "inputs": [
        {
          "internalType": "contract IRewardsDistribution",
          "name": "rewardDistribution",
          "type": "address"
        },
        {
          "internalType": "address",
          "name": "worker",
          "type": "address"
        }
      ],
      "name": "claimable",
      "outputs": [
        {
          "internalType": "uint256",
          "name": "",
          "type": "uint256"
        }
      ],
      "stateMutability": "view",
      "type": "function"
    },
    {
      "inputs": [
        {
          "internalType": "bytes32",
          "name": "role",
          "type": "bytes32"
        }
      ],
      "name": "getRoleAdmin",
      "outputs": [
        {
          "internalType": "bytes32",
          "name": "",
          "type": "bytes32"
        }
      ],
      "stateMutability": "view",
      "type": "function"
    },
    {
      "inputs": [
        {
          "internalType": "bytes32",
          "name": "role",
          "type": "bytes32"
        },
        {
          "internalType": "address",
          "name": "account",
          "type": "address"
        }
      ],
      "name": "grantRole",
      "outputs": [],
      "stateMutability": "nonpayable",
      "type": "function"
    },
    {
      "inputs": [
        {
          "internalType": "bytes32",
          "name": "role",
          "type": "bytes32"
        },
        {
          "internalType": "address",
          "name": "account",
          "type": "address"
        }
      ],
      "name": "hasRole",
      "outputs": [
        {
          "internalType": "bool",
          "name": "",
          "type": "bool"
        }
      ],
      "stateMutability": "view",
      "type": "function"
    },
    {
      "inputs": [
        {
          "internalType": "contract IRewardsDistribution",
          "name": "",
          "type": "address"
        }
      ],
      "name": "isWhitelistedDistributor",
      "outputs": [
        {
          "internalType": "bool",
          "name": "",
          "type": "bool"
        }
      ],
      "stateMutability": "view",
      "type": "function"
    },
    {
      "inputs": [
        {
          "internalType": "bytes32",
          "name": "role",
          "type": "bytes32"
        },
        {
          "internalType": "address",
          "name": "account",
          "type": "address"
        }
      ],
      "name": "renounceRole",
      "outputs": [],
      "stateMutability": "nonpayable",
      "type": "function"
    },
    {
      "inputs": [
        {
          "internalType": "bytes32",
          "name": "role",
          "type": "bytes32"
        },
        {
          "internalType": "address",
          "name": "account",
          "type": "address"
        }
      ],
      "name": "revokeRole",
      "outputs": [],
      "stateMutability": "nonpayable",
      "type": "function"
    },
    {
      "inputs": [],
      "name": "rewardToken",
      "outputs": [
        {
          "internalType": "contract IERC20",
          "name": "",
          "type": "address"
        }
      ],
      "stateMutability": "view",
      "type": "function"
    },
    {
      "inputs": [
        {
          "internalType": "contract IRewardsDistribution",
          "name": "distributor",
          "type": "address"
        },
        {
          "internalType": "bool",
          "name": "isWhitelisted",
          "type": "bool"
        }
      ],
      "name": "setWhitelistedDistributor",
      "outputs": [],
      "stateMutability": "nonpayable",
      "type": "function"
    },
    {
      "inputs": [
        {
          "internalType": "bytes4",
          "name": "interfaceId",
          "type": "bytes4"
        }
      ],
      "name": "supportsInterface",
      "outputs": [
        {
          "internalType": "bool",
          "name": "",
          "type": "bool"
        }
      ],
      "stateMutability": "view",
      "type": "function"
    }
  ],
  "transactionHash": "0x6b2fb70db5735c9686971c9535dfa50f6d54520b74d17173d8fbff9dab6e5c68",
  "args": [
    "0xedFa74C6bC620CC992d4D2C9A27803748B8f5a64",
    "0x6a117CBe9Bfab42151396FC54ddb588151a8Aac7"
  ],
  "numDeployments": 2,
  "solcInputHash": "699f75c7c1ad6078edced98501f090f8",
  "bytecode": "0x60806040523480156200001157600080fd5b5060405162001897380380620018978339818101604052810190620000379190620002bd565b80600260006101000a81548173ffffffffffffffffffffffffffffffffffffffff021916908373ffffffffffffffffffffffffffffffffffffffff1602179055506200008d6000801b836200009560201b60201c565b505062000304565b620000a78282620000ab60201b60201c565b5050565b620000bd82826200019c60201b60201c565b6200019857600160008084815260200190815260200160002060000160008373ffffffffffffffffffffffffffffffffffffffff1673ffffffffffffffffffffffffffffffffffffffff16815260200190815260200160002060006101000a81548160ff0219169083151502179055506200013d6200020660201b60201c565b73ffffffffffffffffffffffffffffffffffffffff168173ffffffffffffffffffffffffffffffffffffffff16837f2f8788117e7eff1d82e926ec794901d17c78024a50270940304540a733656f0d60405160405180910390a45b5050565b600080600084815260200190815260200160002060000160008373ffffffffffffffffffffffffffffffffffffffff1673ffffffffffffffffffffffffffffffffffffffff16815260200190815260200160002060009054906101000a900460ff16905092915050565b600033905090565b600080fd5b600073ffffffffffffffffffffffffffffffffffffffff82169050919050565b6000620002408262000213565b9050919050565b620002528162000233565b81146200025e57600080fd5b50565b600081519050620002728162000247565b92915050565b6000620002858262000233565b9050919050565b620002978162000278565b8114620002a357600080fd5b50565b600081519050620002b7816200028c565b92915050565b60008060408385031215620002d757620002d66200020e565b5b6000620002e78582860162000261565b9250506020620002fa85828601620002a6565b9150509250929050565b61158380620003146000396000f3fe608060405234801561001057600080fd5b50600436106100b45760003560e01c8063a217fddf11610071578063a217fddf1461019d578063b53c69b6146101bb578063cbccc3e0146101d7578063d4570c1c14610207578063d547741f14610237578063f7c618c114610253576100b4565b806301ffc9a7146100b95780631e83409a146100e9578063248a9ca3146101055780632f2ff15d1461013557806336568abe1461015157806391d148541461016d575b600080fd5b6100d360048036038101906100ce9190610cb6565b610271565b6040516100e09190610cfe565b60405180910390f35b61010360048036038101906100fe9190610d89565b6102eb565b005b61011f600480360381019061011a9190610dec565b61049c565b60405161012c9190610e28565b60405180910390f35b61014f600480360381019061014a9190610e6f565b6104bb565b005b61016b60048036038101906101669190610e6f565b6104dc565b005b61018760048036038101906101829190610e6f565b61055f565b6040516101949190610cfe565b60405180910390f35b6101a56105c9565b6040516101b29190610e28565b60405180910390f35b6101d560048036038101906101d09190610edb565b6105d0565b005b6101f160048036038101906101ec9190610d89565b610639565b6040516101fe9190610cfe565b60405180910390f35b610221600480360381019061021c9190610f1b565b610659565b60405161022e9190610f74565b60405180910390f35b610251600480360381019061024c9190610e6f565b6106dd565b005b61025b6106fe565b6040516102689190610fee565b60405180910390f35b60007f7965db0b000000000000000000000000000000000000000000000000000000007bffffffffffffffffffffffffffffffffffffffffffffffffffffffff1916827bffffffffffffffffffffffffffffffffffffffffffffffffffffffff191614806102e457506102e382610724565b5b9050919050565b600160008273ffffffffffffffffffffffffffffffffffffffff1673ffffffffffffffffffffffffffffffffffffffff16815260200190815260200160002060009054906101000a900460ff16610377576040517f08c379a000000000000000000000000000000000000000000000000000000000815260040161036e90611066565b60405180910390fd5b60008173ffffffffffffffffffffffffffffffffffffffff16631e83409a336040518263ffffffff1660e01b81526004016103b29190611095565b6020604051808303816000875af11580156103d1573d6000803e3d6000fd5b505050506040513d601f19601f820116820180604052508101906103f591906110dc565b9050600260009054906101000a900473ffffffffffffffffffffffffffffffffffffffff1673ffffffffffffffffffffffffffffffffffffffff1663a9059cbb33836040518363ffffffff1660e01b8152600401610454929190611109565b6020604051808303816000875af1158015610473573d6000803e3d6000fd5b505050506040513d601f19601f820116820180604052508101906104979190611147565b505050565b6000806000838152602001908152602001600020600101549050919050565b6104c48261049c565b6104cd8161078e565b6104d783836107a2565b505050565b6104e4610882565b73ffffffffffffffffffffffffffffffffffffffff168173ffffffffffffffffffffffffffffffffffffffff1614610551576040517f08c379a0000000000000000000000000000000000000000000000000000000008152600401610548906111e6565b60405180910390fd5b61055b828261088a565b5050565b600080600084815260200190815260200160002060000160008373ffffffffffffffffffffffffffffffffffffffff1673ffffffffffffffffffffffffffffffffffffffff16815260200190815260200160002060009054906101000a900460ff16905092915050565b6000801b81565b6000801b6105dd8161078e565b81600160008573ffffffffffffffffffffffffffffffffffffffff1673ffffffffffffffffffffffffffffffffffffffff16815260200190815260200160002060006101000a81548160ff021916908315150217905550505050565b60016020528060005260406000206000915054906101000a900460ff1681565b60008273ffffffffffffffffffffffffffffffffffffffff1663402914f5836040518263ffffffff1660e01b81526004016106949190611095565b602060405180830381865afa1580156106b1573d6000803e3d6000fd5b505050506040513d601f19601f820116820180604052508101906106d591906110dc565b905092915050565b6106e68261049c565b6106ef8161078e565b6106f9838361088a565b505050565b600260009054906101000a900473ffffffffffffffffffffffffffffffffffffffff1681565b60007f01ffc9a7000000000000000000000000000000000000000000000000000000007bffffffffffffffffffffffffffffffffffffffffffffffffffffffff1916827bffffffffffffffffffffffffffffffffffffffffffffffffffffffff1916149050919050565b61079f8161079a610882565b61096b565b50565b6107ac828261055f565b61087e57600160008084815260200190815260200160002060000160008373ffffffffffffffffffffffffffffffffffffffff1673ffffffffffffffffffffffffffffffffffffffff16815260200190815260200160002060006101000a81548160ff021916908315150217905550610823610882565b73ffffffffffffffffffffffffffffffffffffffff168173ffffffffffffffffffffffffffffffffffffffff16837f2f8788117e7eff1d82e926ec794901d17c78024a50270940304540a733656f0d60405160405180910390a45b5050565b600033905090565b610894828261055f565b1561096757600080600084815260200190815260200160002060000160008373ffffffffffffffffffffffffffffffffffffffff1673ffffffffffffffffffffffffffffffffffffffff16815260200190815260200160002060006101000a81548160ff02191690831515021790555061090c610882565b73ffffffffffffffffffffffffffffffffffffffff168173ffffffffffffffffffffffffffffffffffffffff16837ff6391f5c32d9c69d2a47ea670b442974b53935d1edc7fd64eb21e047a839171b60405160405180910390a45b5050565b610975828261055f565b6109ec57610982816109f0565b6109908360001c6020610a1d565b6040516020016109a192919061130f565b6040516020818303038152906040526040517f08c379a00000000000000000000000000000000000000000000000000000000081526004016109e39190611393565b60405180910390fd5b5050565b6060610a168273ffffffffffffffffffffffffffffffffffffffff16601460ff16610a1d565b9050919050565b606060006002836002610a3091906113e4565b610a3a9190611426565b67ffffffffffffffff811115610a5357610a5261145a565b5b6040519080825280601f01601f191660200182016040528015610a855781602001600182028036833780820191505090505b5090507f300000000000000000000000000000000000000000000000000000000000000081600081518110610abd57610abc611489565b5b60200101907effffffffffffffffffffffffffffffffffffffffffffffffffffffffffffff1916908160001a9053507f780000000000000000000000000000000000000000000000000000000000000081600181518110610b2157610b20611489565b5b60200101907effffffffffffffffffffffffffffffffffffffffffffffffffffffffffffff1916908160001a90535060006001846002610b6191906113e4565b610b6b9190611426565b90505b6001811115610c0b577f3031323334353637383961626364656600000000000000000000000000000000600f861660108110610bad57610bac611489565b5b1a60f81b828281518110610bc457610bc3611489565b5b60200101907effffffffffffffffffffffffffffffffffffffffffffffffffffffffffffff1916908160001a905350600485901c945080610c04906114b8565b9050610b6e565b5060008414610c4f576040517f08c379a0000000000000000000000000000000000000000000000000000000008152600401610c469061152d565b60405180910390fd5b8091505092915050565b600080fd5b60007fffffffff0000000000000000000000000000000000000000000000000000000082169050919050565b610c9381610c5e565b8114610c9e57600080fd5b50565b600081359050610cb081610c8a565b92915050565b600060208284031215610ccc57610ccb610c59565b5b6000610cda84828501610ca1565b91505092915050565b60008115159050919050565b610cf881610ce3565b82525050565b6000602082019050610d136000830184610cef565b92915050565b600073ffffffffffffffffffffffffffffffffffffffff82169050919050565b6000610d4482610d19565b9050919050565b6000610d5682610d39565b9050919050565b610d6681610d4b565b8114610d7157600080fd5b50565b600081359050610d8381610d5d565b92915050565b600060208284031215610d9f57610d9e610c59565b5b6000610dad84828501610d74565b91505092915050565b6000819050919050565b610dc981610db6565b8114610dd457600080fd5b50565b600081359050610de681610dc0565b92915050565b600060208284031215610e0257610e01610c59565b5b6000610e1084828501610dd7565b91505092915050565b610e2281610db6565b82525050565b6000602082019050610e3d6000830184610e19565b92915050565b610e4c81610d39565b8114610e5757600080fd5b50565b600081359050610e6981610e43565b92915050565b60008060408385031215610e8657610e85610c59565b5b6000610e9485828601610dd7565b9250506020610ea585828601610e5a565b9150509250929050565b610eb881610ce3565b8114610ec357600080fd5b50565b600081359050610ed581610eaf565b92915050565b60008060408385031215610ef257610ef1610c59565b5b6000610f0085828601610d74565b9250506020610f1185828601610ec6565b9150509250929050565b60008060408385031215610f3257610f31610c59565b5b6000610f4085828601610d74565b9250506020610f5185828601610e5a565b9150509250929050565b6000819050919050565b610f6e81610f5b565b82525050565b6000602082019050610f896000830184610f65565b92915050565b6000819050919050565b6000610fb4610faf610faa84610d19565b610f8f565b610d19565b9050919050565b6000610fc682610f99565b9050919050565b6000610fd882610fbb565b9050919050565b610fe881610fcd565b82525050565b60006020820190506110036000830184610fdf565b92915050565b600082825260208201905092915050565b7f4469737472696275746f72206e6f742077686974656c69737465640000000000600082015250565b6000611050601b83611009565b915061105b8261101a565b602082019050919050565b6000602082019050818103600083015261107f81611043565b9050919050565b61108f81610d39565b82525050565b60006020820190506110aa6000830184611086565b92915050565b6110b981610f5b565b81146110c457600080fd5b50565b6000815190506110d6816110b0565b92915050565b6000602082840312156110f2576110f1610c59565b5b6000611100848285016110c7565b91505092915050565b600060408201905061111e6000830185611086565b61112b6020830184610f65565b9392505050565b60008151905061114181610eaf565b92915050565b60006020828403121561115d5761115c610c59565b5b600061116b84828501611132565b91505092915050565b7f416363657373436f6e74726f6c3a2063616e206f6e6c792072656e6f756e636560008201527f20726f6c657320666f722073656c660000000000000000000000000000000000602082015250565b60006111d0602f83611009565b91506111db82611174565b604082019050919050565b600060208201905081810360008301526111ff816111c3565b9050919050565b600081905092915050565b7f416363657373436f6e74726f6c3a206163636f756e7420000000000000000000600082015250565b6000611247601783611206565b915061125282611211565b601782019050919050565b600081519050919050565b60005b8381101561128657808201518184015260208101905061126b565b60008484015250505050565b600061129d8261125d565b6112a78185611206565b93506112b7818560208601611268565b80840191505092915050565b7f206973206d697373696e6720726f6c6520000000000000000000000000000000600082015250565b60006112f9601183611206565b9150611304826112c3565b601182019050919050565b600061131a8261123a565b91506113268285611292565b9150611331826112ec565b915061133d8284611292565b91508190509392505050565b6000601f19601f8301169050919050565b60006113658261125d565b61136f8185611009565b935061137f818560208601611268565b61138881611349565b840191505092915050565b600060208201905081810360008301526113ad818461135a565b905092915050565b7f4e487b7100000000000000000000000000000000000000000000000000000000600052601160045260246000fd5b60006113ef82610f5b565b91506113fa83610f5b565b925082820261140881610f5b565b9150828204841483151761141f5761141e6113b5565b5b5092915050565b600061143182610f5b565b915061143c83610f5b565b9250828201905080821115611454576114536113b5565b5b92915050565b7f4e487b7100000000000000000000000000000000000000000000000000000000600052604160045260246000fd5b7f4e487b7100000000000000000000000000000000000000000000000000000000600052603260045260246000fd5b60006114c382610f5b565b9150600082036114d6576114d56113b5565b5b600182039050919050565b7f537472696e67733a20686578206c656e67746820696e73756666696369656e74600082015250565b6000611517602083611009565b9150611522826114e1565b602082019050919050565b600060208201905081810360008301526115468161150a565b905091905056fea26469706673582212205129670b652535984d9bad327b2f9d2940e8a1dda14323105f14bbd565dfe63264736f6c63430008120033",
  "devdoc": {
    "events": {
      "RoleAdminChanged(bytes32,bytes32,bytes32)": {
        "details": "Emitted when `newAdminRole` is set as ``role``'s admin role, replacing `previousAdminRole` `DEFAULT_ADMIN_ROLE` is the starting admin for all roles, despite {RoleAdminChanged} not being emitted signaling this. _Available since v3.1._"
      },
      "RoleGranted(bytes32,address,address)": {
        "details": "Emitted when `account` is granted `role`. `sender` is the account that originated the contract call, an admin role bearer except when using {AccessControl-_setupRole}."
      },
      "RoleRevoked(bytes32,address,address)": {
        "details": "Emitted when `account` is revoked `role`. `sender` is the account that originated the contract call:   - if using `revokeRole`, it is the admin role bearer   - if using `renounceRole`, it is the role bearer (i.e. `account`)"
      }
    },
    "kind": "dev",
    "methods": {
      "getRoleAdmin(bytes32)": {
        "details": "Returns the admin role that controls `role`. See {grantRole} and {revokeRole}. To change a role's admin, use {_setRoleAdmin}."
      },
      "grantRole(bytes32,address)": {
        "details": "Grants `role` to `account`. If `account` had not been already granted `role`, emits a {RoleGranted} event. Requirements: - the caller must have ``role``'s admin role. May emit a {RoleGranted} event."
      },
      "hasRole(bytes32,address)": {
        "details": "Returns `true` if `account` has been granted `role`."
      },
      "renounceRole(bytes32,address)": {
        "details": "Revokes `role` from the calling account. Roles are often managed via {grantRole} and {revokeRole}: this function's purpose is to provide a mechanism for accounts to lose their privileges if they are compromised (such as when a trusted device is misplaced). If the calling account had been revoked `role`, emits a {RoleRevoked} event. Requirements: - the caller must be `account`. May emit a {RoleRevoked} event."
      },
      "revokeRole(bytes32,address)": {
        "details": "Revokes `role` from `account`. If `account` had been granted `role`, emits a {RoleRevoked} event. Requirements: - the caller must have ``role``'s admin role. May emit a {RoleRevoked} event."
      },
      "supportsInterface(bytes4)": {
        "details": "See {IERC165-supportsInterface}."
      }
    },
    "version": 1
  },
  "userdoc": {
    "kind": "user",
    "methods": {},
    "version": 1
  },
  "storageLayout": {
    "storage": [
      {
        "astId": 24,
        "contract": "src/RewardTreasury.sol:RewardTreasury",
        "label": "_roles",
        "offset": 0,
        "slot": "0",
        "type": "t_mapping(t_bytes32,t_struct(RoleData)19_storage)"
      },
      {
        "astId": 3247,
        "contract": "src/RewardTreasury.sol:RewardTreasury",
        "label": "isWhitelistedDistributor",
        "offset": 0,
        "slot": "1",
        "type": "t_mapping(t_contract(IRewardsDistribution)5032,t_bool)"
      },
      {
        "astId": 3250,
        "contract": "src/RewardTreasury.sol:RewardTreasury",
        "label": "rewardToken",
        "offset": 0,
        "slot": "2",
        "type": "t_contract(IERC20)1053"
      }
    ],
    "types": {
      "t_address": {
        "encoding": "inplace",
        "label": "address",
        "numberOfBytes": "20"
      },
      "t_bool": {
        "encoding": "inplace",
        "label": "bool",
        "numberOfBytes": "1"
      },
      "t_bytes32": {
        "encoding": "inplace",
        "label": "bytes32",
        "numberOfBytes": "32"
      },
      "t_contract(IERC20)1053": {
        "encoding": "inplace",
        "label": "contract IERC20",
        "numberOfBytes": "20"
      },
      "t_contract(IRewardsDistribution)5032": {
        "encoding": "inplace",
        "label": "contract IRewardsDistribution",
        "numberOfBytes": "20"
      },
      "t_mapping(t_address,t_bool)": {
        "encoding": "mapping",
        "key": "t_address",
        "label": "mapping(address => bool)",
        "numberOfBytes": "32",
        "value": "t_bool"
      },
      "t_mapping(t_bytes32,t_struct(RoleData)19_storage)": {
        "encoding": "mapping",
        "key": "t_bytes32",
        "label": "mapping(bytes32 => struct AccessControl.RoleData)",
        "numberOfBytes": "32",
        "value": "t_struct(RoleData)19_storage"
      },
      "t_mapping(t_contract(IRewardsDistribution)5032,t_bool)": {
        "encoding": "mapping",
        "key": "t_contract(IRewardsDistribution)5032",
        "label": "mapping(contract IRewardsDistribution => bool)",
        "numberOfBytes": "32",
        "value": "t_bool"
      },
      "t_struct(RoleData)19_storage": {
        "encoding": "inplace",
        "label": "struct AccessControl.RoleData",
        "members": [
          {
            "astId": 16,
            "contract": "src/RewardTreasury.sol:RewardTreasury",
            "label": "members",
            "offset": 0,
            "slot": "0",
            "type": "t_mapping(t_address,t_bool)"
          },
          {
            "astId": 18,
            "contract": "src/RewardTreasury.sol:RewardTreasury",
            "label": "adminRole",
            "offset": 0,
            "slot": "1",
            "type": "t_bytes32"
          }
        ],
        "numberOfBytes": "64"
      }
    }
  }
}