{
  "address": "0x7e41e5FE58911B58820f46F0eD2793ffeD375785",
  "abi": [
    {
      "inputs": [
        {
          "internalType": "contract IERC20",
          "name": "_tSQT",
          "type": "address"
        },
        {
          "internalType": "uint256",
          "name": "_epochLengthBlocks",
          "type": "uint256"
        }
      ],
      "stateMutability": "nonpayable",
      "type": "constructor"
    },
    {
      "anonymous": false,
      "inputs": [
        {
          "indexed": true,
          "internalType": "uint256",
          "name": "workerId",
          "type": "uint256"
        },
        {
          "indexed": true,
          "internalType": "address",
          "name": "account",
          "type": "address"
        },
        {
          "indexed": false,
          "internalType": "uint256",
          "name": "deregistedAt",
          "type": "uint256"
        }
      ],
      "name": "WorkerDeregistered",
      "type": "event"
    },
    {
      "anonymous": false,
      "inputs": [
        {
          "indexed": true,
          "internalType": "uint256",
          "name": "workerId",
          "type": "uint256"
        },
        {
          "indexed": true,
          "internalType": "address",
          "name": "account",
          "type": "address"
        },
        {
          "indexed": false,
          "internalType": "bytes32",
          "name": "peerId0",
          "type": "bytes32"
        },
        {
          "indexed": false,
          "internalType": "bytes32",
          "name": "peerId1",
          "type": "bytes32"
        },
        {
          "indexed": false,
          "internalType": "uint256",
          "name": "registeredAt",
          "type": "uint256"
        }
      ],
      "name": "WorkerRegistered",
      "type": "event"
    },
    {
      "anonymous": false,
      "inputs": [
        {
          "indexed": true,
          "internalType": "uint256",
          "name": "workerId",
          "type": "uint256"
        },
        {
          "indexed": true,
          "internalType": "address",
          "name": "account",
          "type": "address"
        }
      ],
      "name": "WorkerWithdrawn",
      "type": "event"
    },
    {
      "inputs": [],
      "name": "BOND_AMOUNT",
      "outputs": [
        {
          "internalType": "uint256",
          "name": "",
          "type": "uint256"
        }
      ],
      "stateMutability": "view",
      "type": "function"
    },
    {
      "inputs": [
        {
          "internalType": "uint256",
          "name": "",
          "type": "uint256"
        }
      ],
      "name": "activeWorkerIds",
      "outputs": [
        {
          "internalType": "uint256",
          "name": "",
          "type": "uint256"
        }
      ],
      "stateMutability": "view",
      "type": "function"
    },
    {
      "inputs": [],
      "name": "bondAmount",
      "outputs": [
        {
          "internalType": "uint256",
          "name": "",
          "type": "uint256"
        }
      ],
      "stateMutability": "view",
      "type": "function"
    },
    {
      "inputs": [],
      "name": "deregister",
      "outputs": [],
      "stateMutability": "nonpayable",
      "type": "function"
    },
    {
      "inputs": [],
      "name": "epochLength",
      "outputs": [
        {
          "internalType": "uint256",
          "name": "",
          "type": "uint256"
        }
      ],
      "stateMutability": "view",
      "type": "function"
    },
    {
      "inputs": [],
      "name": "getActiveWorkerCount",
      "outputs": [
        {
          "internalType": "uint256",
          "name": "",
          "type": "uint256"
        }
      ],
      "stateMutability": "view",
      "type": "function"
    },
    {
      "inputs": [],
      "name": "getActiveWorkers",
      "outputs": [
        {
          "components": [
            {
              "internalType": "address",
              "name": "account",
              "type": "address"
            },
            {
              "internalType": "bytes32[2]",
              "name": "peerId",
              "type": "bytes32[2]"
            },
            {
              "internalType": "uint256",
              "name": "bond",
              "type": "uint256"
            },
            {
              "internalType": "uint256",
              "name": "registeredAt",
              "type": "uint256"
            },
            {
              "internalType": "uint256",
              "name": "deregisteredAt",
              "type": "uint256"
            }
          ],
          "internalType": "struct WorkerRegistration.Worker[]",
          "name": "",
          "type": "tuple[]"
        }
      ],
      "stateMutability": "view",
      "type": "function"
    },
    {
      "inputs": [],
      "name": "getAllWorkersCount",
      "outputs": [
        {
          "internalType": "uint256",
          "name": "",
          "type": "uint256"
        }
      ],
      "stateMutability": "view",
      "type": "function"
    },
    {
      "inputs": [
        {
          "internalType": "uint256",
          "name": "index",
          "type": "uint256"
        }
      ],
      "name": "getWorkerByIndex",
      "outputs": [
        {
          "components": [
            {
              "internalType": "address",
              "name": "account",
              "type": "address"
            },
            {
              "internalType": "bytes32[2]",
              "name": "peerId",
              "type": "bytes32[2]"
            },
            {
              "internalType": "uint256",
              "name": "bond",
              "type": "uint256"
            },
            {
              "internalType": "uint256",
              "name": "registeredAt",
              "type": "uint256"
            },
            {
              "internalType": "uint256",
              "name": "deregisteredAt",
              "type": "uint256"
            }
          ],
          "internalType": "struct WorkerRegistration.Worker",
          "name": "",
          "type": "tuple"
        }
      ],
      "stateMutability": "view",
      "type": "function"
    },
    {
      "inputs": [],
      "name": "lockPeriod",
      "outputs": [
        {
          "internalType": "uint256",
          "name": "",
          "type": "uint256"
        }
      ],
      "stateMutability": "view",
      "type": "function"
    },
    {
      "inputs": [
        {
          "internalType": "bytes32[2]",
          "name": "peerId",
          "type": "bytes32[2]"
        }
      ],
      "name": "register",
      "outputs": [],
      "stateMutability": "nonpayable",
      "type": "function"
    },
    {
      "inputs": [],
      "name": "tSQD",
      "outputs": [
        {
          "internalType": "contract IERC20",
          "name": "",
          "type": "address"
        }
      ],
      "stateMutability": "view",
      "type": "function"
    },
    {
      "inputs": [],
      "name": "withdraw",
      "outputs": [],
      "stateMutability": "nonpayable",
      "type": "function"
    },
    {
      "inputs": [
        {
          "internalType": "address",
          "name": "",
          "type": "address"
        }
      ],
      "name": "workerIds",
      "outputs": [
        {
          "internalType": "uint256",
          "name": "",
          "type": "uint256"
        }
      ],
      "stateMutability": "view",
      "type": "function"
    },
    {
      "inputs": [
        {
          "internalType": "uint256",
          "name": "",
          "type": "uint256"
        }
      ],
      "name": "workers",
      "outputs": [
        {
          "internalType": "address",
          "name": "account",
          "type": "address"
        },
        {
          "internalType": "uint256",
          "name": "bond",
          "type": "uint256"
        },
        {
          "internalType": "uint256",
          "name": "registeredAt",
          "type": "uint256"
        },
        {
          "internalType": "uint256",
          "name": "deregisteredAt",
          "type": "uint256"
        }
      ],
      "stateMutability": "view",
      "type": "function"
    }
  ],
  "transactionHash": "0xb2c7391bd936c71e317e5e69d7f60e710f5f44ad97b92bfc3d8099ccf7cc60b5",
  "args": [
    "0x5FbDB2315678afecb367f032d93F642f64180aa3",
    1
  ],
  "numDeployments": 1,
  "solcInputHash": "2d30c186134b27a1e2e27e717561b987",
  "bytecode": "0x60806040523480156200001157600080fd5b506040516200201d3803806200201d8339818101604052810190620000379190620000c6565b600160008190555081600160006101000a81548173ffffffffffffffffffffffffffffffffffffffff021916908373ffffffffffffffffffffffffffffffffffffffff1602179055508060028190555060025460038190555050506200018d565b600081519050620000a98162000159565b92915050565b600081519050620000c08162000173565b92915050565b60008060408385031215620000da57600080fd5b6000620000ea8582860162000098565b9250506020620000fd85828601620000af565b9150509250929050565b600062000114826200012f565b9050919050565b6000620001288262000107565b9050919050565b600073ffffffffffffffffffffffffffffffffffffffff82169050919050565b6000819050919050565b62000164816200011b565b81146200017057600080fd5b50565b6200017e816200014f565b81146200018a57600080fd5b50565b611e80806200019d6000396000f3fe608060405234801561001057600080fd5b50600436106100f55760003560e01c80637d46b1f211610097578063bcacc70a11610066578063bcacc70a1461023e578063d0d829901461025c578063f1a22dc21461028c578063f905aaf6146102bf576100f5565b80637d46b1f2146101c857806380f323a7146101f8578063a0f395d614610216578063aff5edb114610234576100f5565b80633e556827116100d35780633e5568271461013e5780633fd8b02f1461015c57806357d775f81461017a57806363e996d214610198576100f5565b806337f0d646146100fa578063393bc3d9146101165780633ccfd60b14610134575b600080fd5b610114600480360381019061010f91906114d4565b6102dd565b005b61011e6106d1565b60405161012b91906119d2565b60405180910390f35b61013c6109ab565b005b610146610cbf565b6040516101539190611b41565b60405180910390f35b610164610d70565b6040516101719190611b41565b60405180910390f35b610182610d76565b60405161018f9190611b41565b60405180910390f35b6101b260048036038101906101ad9190611526565b610d7c565b6040516101bf9190611b41565b60405180910390f35b6101e260048036038101906101dd9190611526565b610da0565b6040516101ef9190611b26565b60405180910390f35b610200610f1d565b60405161020d9190611b41565b60405180910390f35b61021e610f23565b60405161022b9190611a2b565b60405180910390f35b61023c610f49565b005b610246611245565b6040516102539190611b41565b60405180910390f35b610276600480360381019061027191906114ab565b611253565b6040516102839190611b41565b60405180910390f35b6102a660048036038101906102a19190611526565b61126b565b6040516102b6949392919061198d565b60405180910390f35b6102c76112bb565b6040516102d49190611b41565b60405180910390f35b6102e56112c8565b6000600760003373ffffffffffffffffffffffffffffffffffffffff1673ffffffffffffffffffffffffffffffffffffffff1681526020019081526020016000205414610367576040517f08c379a000000000000000000000000000000000000000000000000000000000815260040161035e90611aa6565b60405180910390fd5b600160009054906101000a900473ffffffffffffffffffffffffffffffffffffffff1673ffffffffffffffffffffffffffffffffffffffff166323b872dd333069152d02c7e14af68000006040518463ffffffff1660e01b81526004016103d09392919061192d565b602060405180830381600087803b1580156103ea57600080fd5b505af11580156103fe573d6000803e3d6000fd5b505050506040513d601f19601f8201168201806040525081019061042291906114fd565b5061042d6005611318565b6000610439600561132e565b90506040518060a001604052803373ffffffffffffffffffffffffffffffffffffffff168152602001836002806020026040519081016040528092919082600260200280828437600081840152601f19601f820116905080830192505050505050815260200169152d02c7e14af680000081526020016002546001600254436104c29190611c29565b6104cc9190611bd3565b6104d69190611c5a565b815260200160008152506006600083815260200190815260200160002060008201518160000160006101000a81548173ffffffffffffffffffffffffffffffffffffffff021916908373ffffffffffffffffffffffffffffffffffffffff160217905550602082015181600101906002610551929190611376565b5060408201518160030155606082015181600401556080820151816005015590505080600760003373ffffffffffffffffffffffffffffffffffffffff1673ffffffffffffffffffffffffffffffffffffffff1681526020019081526020016000208190555060088190806001815401808255809150506001900390600052602060002001600090919091909150553373ffffffffffffffffffffffffffffffffffffffff16817f4d15f515871565fd5a85a928e0a1da0376b7cb2bf0058f4bc316a0820eaa9ab184600060028110610653577f4e487b7100000000000000000000000000000000000000000000000000000000600052603260045260246000fd5b602002013585600160028110610692577f4e487b7100000000000000000000000000000000000000000000000000000000600052603260045260246000fd5b602002013560066000878152602001908152602001600020600401546040516106bd939291906119f4565b60405180910390a3506106ce61133c565b50565b60606000805b60088054905081101561077657600060088281548110610720577f4e487b7100000000000000000000000000000000000000000000000000000000600052603260045260246000fd5b90600052602060002001549050600060066000838152602001908152602001600020905061074d81611346565b1561076157838061075d90611d5e565b9450505b5050808061076e90611d5e565b9150506106d7565b5060008167ffffffffffffffff8111156107b9577f4e487b7100000000000000000000000000000000000000000000000000000000600052604160045260246000fd5b6040519080825280602002602001820160405280156107f257816020015b6107df6113b6565b8152602001906001900390816107d75790505b5090506000805b6008805490508110156109a157600060088281548110610842577f4e487b7100000000000000000000000000000000000000000000000000000000600052603260045260246000fd5b90600052602060002001549050600060066000838152602001908152602001600020905061086f81611346565b1561098c57806040518060a00160405290816000820160009054906101000a900473ffffffffffffffffffffffffffffffffffffffff1673ffffffffffffffffffffffffffffffffffffffff1673ffffffffffffffffffffffffffffffffffffffff16815260200160018201600280602002604051908101604052809291908260028015610912576020028201915b8154815260200190600101908083116108fe575b505050505081526020016003820154815260200160048201548152602001600582015481525050858581518110610972577f4e487b7100000000000000000000000000000000000000000000000000000000600052603260045260246000fd5b6020026020010181905250838061098890611d5e565b9450505b5050808061099990611d5e565b9150506107f9565b5081935050505090565b6109b36112c8565b6000600760003373ffffffffffffffffffffffffffffffffffffffff1673ffffffffffffffffffffffffffffffffffffffff1681526020019081526020016000205490506000811415610a3b576040517f08c379a0000000000000000000000000000000000000000000000000000000008152600401610a3290611a66565b60405180910390fd5b610a5660066000838152602001908152602001600020611346565b15610a96576040517f08c379a0000000000000000000000000000000000000000000000000000000008152600401610a8d90611a46565b60405180910390fd5b6003546006600083815260200190815260200160002060050154610aba9190611bd3565b431015610afc576040517f08c379a0000000000000000000000000000000000000000000000000000000008152600401610af390611ac6565b60405180910390fd5b60006006600083815260200190815260200160002060030154905060066000838152602001908152602001600020600080820160006101000a81549073ffffffffffffffffffffffffffffffffffffffff0219169055600182016000610b629190611401565b6003820160009055600482016000905560058201600090555050600760003373ffffffffffffffffffffffffffffffffffffffff1673ffffffffffffffffffffffffffffffffffffffff16815260200190815260200160002060009055600160009054906101000a900473ffffffffffffffffffffffffffffffffffffffff1673ffffffffffffffffffffffffffffffffffffffff1663a9059cbb33836040518363ffffffff1660e01b8152600401610c1c929190611964565b602060405180830381600087803b158015610c3657600080fd5b505af1158015610c4a573d6000803e3d6000fd5b505050506040513d601f19601f82011682018060405250810190610c6e91906114fd565b503373ffffffffffffffffffffffffffffffffffffffff16827fb6ee3a0ef8982f0f296a13a075fe56e5fd8c1bc2282a3c5b54f12d514ed7a95660405160405180910390a35050610cbd61133c565b565b6000806000905060005b600880549050811015610d6857600060088281548110610d12577f4e487b7100000000000000000000000000000000000000000000000000000000600052603260045260246000fd5b906000526020600020015490506000600660008381526020019081526020016000209050610d3f81611346565b15610d53578380610d4f90611d5e565b9450505b50508080610d6090611d5e565b915050610cc9565b508091505090565b60035481565b60025481565b60088181548110610d8c57600080fd5b906000526020600020016000915090505481565b610da86113b6565b6008805490508210610def576040517f08c379a0000000000000000000000000000000000000000000000000000000008152600401610de690611a86565b60405180910390fd5b600060088381548110610e2b577f4e487b7100000000000000000000000000000000000000000000000000000000600052603260045260246000fd5b906000526020600020015490506000600660008381526020019081526020016000209050806040518060a00160405290816000820160009054906101000a900473ffffffffffffffffffffffffffffffffffffffff1673ffffffffffffffffffffffffffffffffffffffff1673ffffffffffffffffffffffffffffffffffffffff16815260200160018201600280602002604051908101604052809291908260028015610eed576020028201915b815481526020019060010190808311610ed9575b50505050508152602001600382015481526020016004820154815260200160058201548152505092505050919050565b60045481565b600160009054906101000a900473ffffffffffffffffffffffffffffffffffffffff1681565b610f516112c8565b6000600760003373ffffffffffffffffffffffffffffffffffffffff1673ffffffffffffffffffffffffffffffffffffffff1681526020019081526020016000205490506000811415610fd9576040517f08c379a0000000000000000000000000000000000000000000000000000000008152600401610fd090611a66565b60405180910390fd5b610ff460066000838152602001908152602001600020611346565b611033576040517f08c379a000000000000000000000000000000000000000000000000000000000815260040161102a90611ae6565b60405180910390fd5b6002546001600254436110469190611c29565b6110509190611bd3565b61105a9190611c5a565b600660008381526020019081526020016000206005018190555060005b6008805490508110156111d45781600882815481106110bf577f4e487b7100000000000000000000000000000000000000000000000000000000600052603260045260246000fd5b906000526020600020015414156111c157600860016008805490506110e49190611cb4565b8154811061111b577f4e487b7100000000000000000000000000000000000000000000000000000000600052603260045260246000fd5b906000526020600020015460088281548110611160577f4e487b7100000000000000000000000000000000000000000000000000000000600052603260045260246000fd5b906000526020600020018190555060088054806111a6577f4e487b7100000000000000000000000000000000000000000000000000000000600052603160045260246000fd5b600190038181906000526020600020016000905590556111d4565b80806111cc90611d5e565b915050611077565b503373ffffffffffffffffffffffffffffffffffffffff16817f4a7ca6c9178181481ac5c6e9ed0965213ae489c4aaf53323bd5e1f318a9d77c360066000858152602001908152602001600020600501546040516112329190611b41565b60405180910390a35061124361133c565b565b69152d02c7e14af680000081565b60076020528060005260406000206000915090505481565b60066020528060005260406000206000915090508060000160009054906101000a900473ffffffffffffffffffffffffffffffffffffffff16908060030154908060040154908060050154905084565b6000600880549050905090565b6002600054141561130e576040517f08c379a000000000000000000000000000000000000000000000000000000000815260040161130590611b06565b60405180910390fd5b6002600081905550565b6001816000016000828254019250508190555050565b600081600001549050919050565b6001600081905550565b60004382600401541115801561136f575060008260050154148061136e575043826005015410155b5b9050919050565b82600281019282156113a5579160200282015b828111156113a4578251825591602001919060010190611389565b5b5090506113b2919061140f565b5090565b6040518060a00160405280600073ffffffffffffffffffffffffffffffffffffffff1681526020016113e661142c565b81526020016000815260200160008152602001600081525090565b506000815560010160009055565b5b80821115611428576000816000905550600101611410565b5090565b6040518060400160405280600290602082028036833780820191505090505090565b60008135905061145d81611e05565b92915050565b60008190508260206002028201111561147b57600080fd5b92915050565b60008151905061149081611e1c565b92915050565b6000813590506114a581611e33565b92915050565b6000602082840312156114bd57600080fd5b60006114cb8482850161144e565b91505092915050565b6000604082840312156114e657600080fd5b60006114f484828501611463565b91505092915050565b60006020828403121561150f57600080fd5b600061151d84828501611481565b91505092915050565b60006020828403121561153857600080fd5b600061154684828501611496565b91505092915050565b600061155b8383611652565b60208301905092915050565b6000611573838361183f565b60c08301905092915050565b61158881611ce8565b82525050565b61159781611ce8565b82525050565b6115a681611b76565b6115b08184611ba6565b92506115bb82611b5c565b8060005b838110156115ec5781516115d3878261154f565b96506115de83611b8c565b9250506001810190506115bf565b505050505050565b60006115ff82611b81565b6116098185611bb1565b935061161483611b66565b8060005b8381101561164557815161162c8882611567565b975061163783611b99565b925050600181019050611618565b5085935050505092915050565b61165b81611d06565b82525050565b61166a81611d06565b82525050565b61167981611d3a565b82525050565b600061168c601083611bc2565b91507f576f726b657220697320616374697665000000000000000000000000000000006000830152602082019050919050565b60006116cc601583611bc2565b91507f576f726b6572206e6f74207265676973746572656400000000000000000000006000830152602082019050919050565b600061170c601383611bc2565b91507f496e646578206f7574206f6620626f756e6473000000000000000000000000006000830152602082019050919050565b600061174c601983611bc2565b91507f576f726b657220616c72656164792072656769737465726564000000000000006000830152602082019050919050565b600061178c601083611bc2565b91507f576f726b6572206973206c6f636b6564000000000000000000000000000000006000830152602082019050919050565b60006117cc601183611bc2565b91507f576f726b6572206e6f74206163746976650000000000000000000000000000006000830152602082019050919050565b600061180c601f83611bc2565b91507f5265656e7472616e637947756172643a207265656e7472616e742063616c6c006000830152602082019050919050565b60c082016000820151611855600085018261157f565b506020820151611868602085018261159d565b50604082015161187b606085018261190f565b50606082015161188e608085018261190f565b5060808201516118a160a085018261190f565b50505050565b60c0820160008201516118bd600085018261157f565b5060208201516118d0602085018261159d565b5060408201516118e3606085018261190f565b5060608201516118f6608085018261190f565b50608082015161190960a085018261190f565b50505050565b61191881611d30565b82525050565b61192781611d30565b82525050565b6000606082019050611942600083018661158e565b61194f602083018561158e565b61195c604083018461191e565b949350505050565b6000604082019050611979600083018561158e565b611986602083018461191e565b9392505050565b60006080820190506119a2600083018761158e565b6119af602083018661191e565b6119bc604083018561191e565b6119c9606083018461191e565b95945050505050565b600060208201905081810360008301526119ec81846115f4565b905092915050565b6000606082019050611a096000830186611661565b611a166020830185611661565b611a23604083018461191e565b949350505050565b6000602082019050611a406000830184611670565b92915050565b60006020820190508181036000830152611a5f8161167f565b9050919050565b60006020820190508181036000830152611a7f816116bf565b9050919050565b60006020820190508181036000830152611a9f816116ff565b9050919050565b60006020820190508181036000830152611abf8161173f565b9050919050565b60006020820190508181036000830152611adf8161177f565b9050919050565b60006020820190508181036000830152611aff816117bf565b9050919050565b60006020820190508181036000830152611b1f816117ff565b9050919050565b600060c082019050611b3b60008301846118a7565b92915050565b6000602082019050611b56600083018461191e565b92915050565b6000819050919050565b6000819050602082019050919050565b600060029050919050565b600081519050919050565b6000602082019050919050565b6000602082019050919050565b600081905092915050565b600082825260208201905092915050565b600082825260208201905092915050565b6000611bde82611d30565b9150611be983611d30565b9250827fffffffffffffffffffffffffffffffffffffffffffffffffffffffffffffffff03821115611c1e57611c1d611da7565b5b828201905092915050565b6000611c3482611d30565b9150611c3f83611d30565b925082611c4f57611c4e611dd6565b5b828204905092915050565b6000611c6582611d30565b9150611c7083611d30565b9250817fffffffffffffffffffffffffffffffffffffffffffffffffffffffffffffffff0483118215151615611ca957611ca8611da7565b5b828202905092915050565b6000611cbf82611d30565b9150611cca83611d30565b925082821015611cdd57611cdc611da7565b5b828203905092915050565b6000611cf382611d10565b9050919050565b60008115159050919050565b6000819050919050565b600073ffffffffffffffffffffffffffffffffffffffff82169050919050565b6000819050919050565b6000611d4582611d4c565b9050919050565b6000611d5782611d10565b9050919050565b6000611d6982611d30565b91507fffffffffffffffffffffffffffffffffffffffffffffffffffffffffffffffff821415611d9c57611d9b611da7565b5b600182019050919050565b7f4e487b7100000000000000000000000000000000000000000000000000000000600052601160045260246000fd5b7f4e487b7100000000000000000000000000000000000000000000000000000000600052601260045260246000fd5b611e0e81611ce8565b8114611e1957600080fd5b50565b611e2581611cfa565b8114611e3057600080fd5b50565b611e3c81611d30565b8114611e4757600080fd5b5056fea264697066735822122047cf931c28c1085b82579332598310f690b4442c40be745d6c104fb83d2fe67064736f6c63430008000033",
  "devdoc": {
    "kind": "dev",
    "methods": {},
    "version": 1
  },
  "userdoc": {
    "kind": "user",
    "methods": {},
    "version": 1
  },
  "storageLayout": {
    "storage": [
      {
        "astId": 10,
        "contract": "contracts/WorkerRegistration.sol:WorkerRegistration",
        "label": "_status",
        "offset": 0,
        "slot": "0",
        "type": "t_uint256"
      },
      {
        "astId": 543,
        "contract": "contracts/WorkerRegistration.sol:WorkerRegistration",
        "label": "tSQD",
        "offset": 0,
        "slot": "1",
        "type": "t_contract(IERC20)131"
      },
      {
        "astId": 545,
        "contract": "contracts/WorkerRegistration.sol:WorkerRegistration",
        "label": "epochLength",
        "offset": 0,
        "slot": "2",
        "type": "t_uint256"
      },
      {
        "astId": 547,
        "contract": "contracts/WorkerRegistration.sol:WorkerRegistration",
        "label": "lockPeriod",
        "offset": 0,
        "slot": "3",
        "type": "t_uint256"
      },
      {
        "astId": 549,
        "contract": "contracts/WorkerRegistration.sol:WorkerRegistration",
        "label": "bondAmount",
        "offset": 0,
        "slot": "4",
        "type": "t_uint256"
      },
      {
        "astId": 552,
        "contract": "contracts/WorkerRegistration.sol:WorkerRegistration",
        "label": "workerIdTracker",
        "offset": 0,
        "slot": "5",
        "type": "t_struct(Counter)137_storage"
      },
      {
        "astId": 570,
        "contract": "contracts/WorkerRegistration.sol:WorkerRegistration",
        "label": "workers",
        "offset": 0,
        "slot": "6",
        "type": "t_mapping(t_uint256,t_struct(Worker)565_storage)"
      },
      {
        "astId": 574,
        "contract": "contracts/WorkerRegistration.sol:WorkerRegistration",
        "label": "workerIds",
        "offset": 0,
        "slot": "7",
        "type": "t_mapping(t_address,t_uint256)"
      },
      {
        "astId": 577,
        "contract": "contracts/WorkerRegistration.sol:WorkerRegistration",
        "label": "activeWorkerIds",
        "offset": 0,
        "slot": "8",
        "type": "t_array(t_uint256)dyn_storage"
      }
    ],
    "types": {
      "t_address": {
        "encoding": "inplace",
        "label": "address",
        "numberOfBytes": "20"
      },
      "t_array(t_bytes32)2_storage": {
        "base": "t_bytes32",
        "encoding": "inplace",
        "label": "bytes32[2]",
        "numberOfBytes": "64"
      },
      "t_array(t_uint256)dyn_storage": {
        "base": "t_uint256",
        "encoding": "dynamic_array",
        "label": "uint256[]",
        "numberOfBytes": "32"
      },
      "t_bytes32": {
        "encoding": "inplace",
        "label": "bytes32",
        "numberOfBytes": "32"
      },
      "t_contract(IERC20)131": {
        "encoding": "inplace",
        "label": "contract IERC20",
        "numberOfBytes": "20"
      },
      "t_mapping(t_address,t_uint256)": {
        "encoding": "mapping",
        "key": "t_address",
        "label": "mapping(address => uint256)",
        "numberOfBytes": "32",
        "value": "t_uint256"
      },
      "t_mapping(t_uint256,t_struct(Worker)565_storage)": {
        "encoding": "mapping",
        "key": "t_uint256",
        "label": "mapping(uint256 => struct WorkerRegistration.Worker)",
        "numberOfBytes": "32",
        "value": "t_struct(Worker)565_storage"
      },
      "t_struct(Counter)137_storage": {
        "encoding": "inplace",
        "label": "struct Counters.Counter",
        "members": [
          {
            "astId": 136,
            "contract": "contracts/WorkerRegistration.sol:WorkerRegistration",
            "label": "_value",
            "offset": 0,
            "slot": "0",
            "type": "t_uint256"
          }
        ],
        "numberOfBytes": "32"
      },
      "t_struct(Worker)565_storage": {
        "encoding": "inplace",
        "label": "struct WorkerRegistration.Worker",
        "members": [
          {
            "astId": 554,
            "contract": "contracts/WorkerRegistration.sol:WorkerRegistration",
            "label": "account",
            "offset": 0,
            "slot": "0",
            "type": "t_address"
          },
          {
            "astId": 558,
            "contract": "contracts/WorkerRegistration.sol:WorkerRegistration",
            "label": "peerId",
            "offset": 0,
            "slot": "1",
            "type": "t_array(t_bytes32)2_storage"
          },
          {
            "astId": 560,
            "contract": "contracts/WorkerRegistration.sol:WorkerRegistration",
            "label": "bond",
            "offset": 0,
            "slot": "3",
            "type": "t_uint256"
          },
          {
            "astId": 562,
            "contract": "contracts/WorkerRegistration.sol:WorkerRegistration",
            "label": "registeredAt",
            "offset": 0,
            "slot": "4",
            "type": "t_uint256"
          },
          {
            "astId": 564,
            "contract": "contracts/WorkerRegistration.sol:WorkerRegistration",
            "label": "deregisteredAt",
            "offset": 0,
            "slot": "5",
            "type": "t_uint256"
          }
        ],
        "numberOfBytes": "192"
      },
      "t_uint256": {
        "encoding": "inplace",
        "label": "uint256",
        "numberOfBytes": "32"
      }
    }
  }
}