{
  "address": "0xE49f913608F296584d92c2e176e2e68156A96A12",
  "abi": [
    {
      "inputs": [
        {
          "internalType": "contract IERC20",
          "name": "_tSQT",
          "type": "address"
        },
        {
          "internalType": "uint256",
          "name": "_epochLengthBlocks",
          "type": "uint256"
        }
      ],
      "stateMutability": "nonpayable",
      "type": "constructor"
    },
    {
      "anonymous": false,
      "inputs": [
        {
          "indexed": true,
          "internalType": "uint256",
          "name": "workerId",
          "type": "uint256"
        },
        {
          "indexed": true,
          "internalType": "address",
          "name": "account",
          "type": "address"
        },
        {
          "indexed": false,
          "internalType": "uint256",
          "name": "deregistedAt",
          "type": "uint256"
        }
      ],
      "name": "WorkerDeregistered",
      "type": "event"
    },
    {
      "anonymous": false,
      "inputs": [
        {
          "indexed": true,
          "internalType": "uint256",
          "name": "workerId",
          "type": "uint256"
        },
        {
          "indexed": true,
          "internalType": "address",
          "name": "account",
          "type": "address"
        },
        {
          "indexed": false,
          "internalType": "bytes32",
          "name": "peerId0",
          "type": "bytes32"
        },
        {
          "indexed": false,
          "internalType": "bytes32",
          "name": "peerId1",
          "type": "bytes32"
        },
        {
          "indexed": false,
          "internalType": "uint256",
          "name": "registeredAt",
          "type": "uint256"
        }
      ],
      "name": "WorkerRegistered",
      "type": "event"
    },
    {
      "anonymous": false,
      "inputs": [
        {
          "indexed": true,
          "internalType": "uint256",
          "name": "workerId",
          "type": "uint256"
        },
        {
          "indexed": true,
          "internalType": "address",
          "name": "account",
          "type": "address"
        }
      ],
      "name": "WorkerWithdrawn",
      "type": "event"
    },
    {
      "inputs": [],
      "name": "BOND_AMOUNT",
      "outputs": [
        {
          "internalType": "uint256",
          "name": "",
          "type": "uint256"
        }
      ],
      "stateMutability": "view",
      "type": "function"
    },
    {
      "inputs": [
        {
          "internalType": "uint256",
          "name": "",
          "type": "uint256"
        }
      ],
      "name": "activeWorkerIds",
      "outputs": [
        {
          "internalType": "uint256",
          "name": "",
          "type": "uint256"
        }
      ],
      "stateMutability": "view",
      "type": "function"
    },
    {
      "inputs": [],
      "name": "bondAmount",
      "outputs": [
        {
          "internalType": "uint256",
          "name": "",
          "type": "uint256"
        }
      ],
      "stateMutability": "view",
      "type": "function"
    },
    {
      "inputs": [],
      "name": "deregister",
      "outputs": [],
      "stateMutability": "nonpayable",
      "type": "function"
    },
    {
      "inputs": [],
      "name": "epochLength",
      "outputs": [
        {
          "internalType": "uint256",
          "name": "",
          "type": "uint256"
        }
      ],
      "stateMutability": "view",
      "type": "function"
    },
    {
      "inputs": [],
      "name": "getActiveWorkerCount",
      "outputs": [
        {
          "internalType": "uint256",
          "name": "",
          "type": "uint256"
        }
      ],
      "stateMutability": "view",
      "type": "function"
    },
    {
      "inputs": [],
      "name": "getActiveWorkers",
      "outputs": [
        {
          "components": [
            {
              "internalType": "address",
              "name": "account",
              "type": "address"
            },
            {
              "internalType": "bytes32[2]",
              "name": "peerId",
              "type": "bytes32[2]"
            },
            {
              "internalType": "uint256",
              "name": "bond",
              "type": "uint256"
            },
            {
              "internalType": "uint256",
              "name": "registeredAt",
              "type": "uint256"
            },
            {
              "internalType": "uint256",
              "name": "deregisteredAt",
              "type": "uint256"
            }
          ],
          "internalType": "struct WorkerRegistration.Worker[]",
          "name": "",
          "type": "tuple[]"
        }
      ],
      "stateMutability": "view",
      "type": "function"
    },
    {
      "inputs": [],
      "name": "getAllWorkersCount",
      "outputs": [
        {
          "internalType": "uint256",
          "name": "",
          "type": "uint256"
        }
      ],
      "stateMutability": "view",
      "type": "function"
    },
    {
      "inputs": [
        {
          "internalType": "uint256",
          "name": "index",
          "type": "uint256"
        }
      ],
      "name": "getWorkerByIndex",
      "outputs": [
        {
          "components": [
            {
              "internalType": "address",
              "name": "account",
              "type": "address"
            },
            {
              "internalType": "bytes32[2]",
              "name": "peerId",
              "type": "bytes32[2]"
            },
            {
              "internalType": "uint256",
              "name": "bond",
              "type": "uint256"
            },
            {
              "internalType": "uint256",
              "name": "registeredAt",
              "type": "uint256"
            },
            {
              "internalType": "uint256",
              "name": "deregisteredAt",
              "type": "uint256"
            }
          ],
          "internalType": "struct WorkerRegistration.Worker",
          "name": "",
          "type": "tuple"
        }
      ],
      "stateMutability": "view",
      "type": "function"
    },
    {
      "inputs": [],
      "name": "lockPeriod",
      "outputs": [
        {
          "internalType": "uint256",
          "name": "",
          "type": "uint256"
        }
      ],
      "stateMutability": "view",
      "type": "function"
    },
    {
      "inputs": [
        {
          "internalType": "bytes32[2]",
          "name": "peerId",
          "type": "bytes32[2]"
        }
      ],
      "name": "register",
      "outputs": [],
      "stateMutability": "nonpayable",
      "type": "function"
    },
    {
      "inputs": [],
      "name": "tSQD",
      "outputs": [
        {
          "internalType": "contract IERC20",
          "name": "",
          "type": "address"
        }
      ],
      "stateMutability": "view",
      "type": "function"
    },
    {
      "inputs": [],
      "name": "withdraw",
      "outputs": [],
      "stateMutability": "nonpayable",
      "type": "function"
    },
    {
      "inputs": [
        {
          "internalType": "address",
          "name": "",
          "type": "address"
        }
      ],
      "name": "workerIds",
      "outputs": [
        {
          "internalType": "uint256",
          "name": "",
          "type": "uint256"
        }
      ],
      "stateMutability": "view",
      "type": "function"
    },
    {
      "inputs": [
        {
          "internalType": "uint256",
          "name": "",
          "type": "uint256"
        }
      ],
      "name": "workers",
      "outputs": [
        {
          "internalType": "address",
          "name": "account",
          "type": "address"
        },
        {
          "internalType": "uint256",
          "name": "bond",
          "type": "uint256"
        },
        {
          "internalType": "uint256",
          "name": "registeredAt",
          "type": "uint256"
        },
        {
          "internalType": "uint256",
          "name": "deregisteredAt",
          "type": "uint256"
        }
      ],
      "stateMutability": "view",
      "type": "function"
    }
  ],
  "transactionHash": "0xcc7244186e315aa4a8cbb77dd2b00a44d96e5d9de53351acf8b3861325d4aa4d",
  "args": [
    "0x5FbDB2315678afecb367f032d93F642f64180aa3",
    1
  ],
  "numDeployments": 1,
  "solcInputHash": "db87303d79d5bd2d23255b7517140930",
  "bytecode": "0x60806040523480156200001157600080fd5b5060405162002205380380620022058339818101604052810190620000379190620000c6565b600160008190555081600160006101000a81548173ffffffffffffffffffffffffffffffffffffffff021916908373ffffffffffffffffffffffffffffffffffffffff1602179055508060028190555060025460038190555050506200018d565b600081519050620000a98162000159565b92915050565b600081519050620000c08162000173565b92915050565b60008060408385031215620000da57600080fd5b6000620000ea8582860162000098565b9250506020620000fd85828601620000af565b9150509250929050565b600062000114826200012f565b9050919050565b6000620001288262000107565b9050919050565b600073ffffffffffffffffffffffffffffffffffffffff82169050919050565b6000819050919050565b62000164816200011b565b81146200017057600080fd5b50565b6200017e816200014f565b81146200018a57600080fd5b50565b612068806200019d6000396000f3fe608060405234801561001057600080fd5b50600436106100f55760003560e01c80637d46b1f211610097578063bcacc70a11610066578063bcacc70a1461023e578063d0d829901461025c578063f1a22dc21461028c578063f905aaf6146102bf576100f5565b80637d46b1f2146101c857806380f323a7146101f8578063a0f395d614610216578063aff5edb114610234576100f5565b80633e556827116100d35780633e5568271461013e5780633fd8b02f1461015c57806357d775f81461017a57806363e996d214610198576100f5565b806337f0d646146100fa578063393bc3d9146101165780633ccfd60b14610134575b600080fd5b610114600480360381019061010f9190611612565b6102dd565b005b61011e61074d565b60405161012b9190611b49565b60405180910390f35b61013c610a27565b005b610146610d3b565b6040516101539190611cda565b60405180910390f35b610164610dec565b6040516101719190611cda565b60405180910390f35b610182610df2565b60405161018f9190611cda565b60405180910390f35b6101b260048036038101906101ad9190611664565b610df8565b6040516101bf9190611cda565b60405180910390f35b6101e260048036038101906101dd9190611664565b610e1c565b6040516101ef9190611cbf565b60405180910390f35b610200610f99565b60405161020d9190611cda565b60405180910390f35b61021e610f9f565b60405161022b9190611ba2565b60405180910390f35b61023c610fc5565b005b6102466112c1565b6040516102539190611cda565b60405180910390f35b610276600480360381019061027191906115e9565b6112cf565b6040516102839190611cda565b60405180910390f35b6102a660048036038101906102a19190611664565b6112e7565b6040516102b69493929190611b04565b60405180910390f35b6102c7611337565b6040516102d49190611cda565b60405180910390f35b6102e5611344565b6000600760003373ffffffffffffffffffffffffffffffffffffffff1673ffffffffffffffffffffffffffffffffffffffff1681526020019081526020016000205414610367576040517f08c379a000000000000000000000000000000000000000000000000000000000815260040161035e90611c3f565b60405180910390fd5b600160009054906101000a900473ffffffffffffffffffffffffffffffffffffffff1673ffffffffffffffffffffffffffffffffffffffff166323b872dd333069152d02c7e14af68000006040518463ffffffff1660e01b81526004016103d093929190611aa4565b602060405180830381600087803b1580156103ea57600080fd5b505af11580156103fe573d6000803e3d6000fd5b505050506040513d601f19601f82011682018060405250810190610422919061163b565b5061042d6005611394565b600061043960056113aa565b90506040518060a001604052803373ffffffffffffffffffffffffffffffffffffffff168152602001836002806020026040519081016040528092919082600260200280828437600081840152601f19601f820116905080830192505050505050815260200169152d02c7e14af680000081526020016002546001600254436104c29190611dcd565b6104cc9190611d77565b6104d69190611dfe565b815260200160008152506006600083815260200190815260200160002060008201518160000160006101000a81548173ffffffffffffffffffffffffffffffffffffffff021916908373ffffffffffffffffffffffffffffffffffffffff1602179055506020820151816001019060026105519291906114b4565b5060408201518160030155606082015181600401556080820151816005015590505080600760003373ffffffffffffffffffffffffffffffffffffffff1673ffffffffffffffffffffffffffffffffffffffff16815260200190815260200160002081905550600881908060018154018082558091505060019003906000526020600020016000909190919091505561061e6040518060400160405280601481526020017f636f6e74726163743a20726567697374657265640000000000000000000000008152506113b8565b3373ffffffffffffffffffffffffffffffffffffffff16817f4d15f515871565fd5a85a928e0a1da0376b7cb2bf0058f4bc316a0820eaa9ab184600060028110610691577f4e487b7100000000000000000000000000000000000000000000000000000000600052603260045260246000fd5b6020020135856001600281106106d0577f4e487b7100000000000000000000000000000000000000000000000000000000600052603260045260246000fd5b602002013560066000878152602001908152602001600020600401546040516106fb93929190611b6b565b60405180910390a36107416040518060400160405280601181526020017f636f6e74726163743a20656d69747465640000000000000000000000000000008152506113b8565b5061074a611451565b50565b60606000805b6008805490508110156107f25760006008828154811061079c577f4e487b7100000000000000000000000000000000000000000000000000000000600052603260045260246000fd5b9060005260206000200154905060006006600083815260200190815260200160002090506107c98161145b565b156107dd5783806107d990611f35565b9450505b505080806107ea90611f35565b915050610753565b5060008167ffffffffffffffff811115610835577f4e487b7100000000000000000000000000000000000000000000000000000000600052604160045260246000fd5b60405190808252806020026020018201604052801561086e57816020015b61085b6114f4565b8152602001906001900390816108535790505b5090506000805b600880549050811015610a1d576000600882815481106108be577f4e487b7100000000000000000000000000000000000000000000000000000000600052603260045260246000fd5b9060005260206000200154905060006006600083815260200190815260200160002090506108eb8161145b565b15610a0857806040518060a00160405290816000820160009054906101000a900473ffffffffffffffffffffffffffffffffffffffff1673ffffffffffffffffffffffffffffffffffffffff1673ffffffffffffffffffffffffffffffffffffffff1681526020016001820160028060200260405190810160405280929190826002801561098e576020028201915b81548152602001906001019080831161097a575b5050505050815260200160038201548152602001600482015481526020016005820154815250508585815181106109ee577f4e487b7100000000000000000000000000000000000000000000000000000000600052603260045260246000fd5b60200260200101819052508380610a0490611f35565b9450505b50508080610a1590611f35565b915050610875565b5081935050505090565b610a2f611344565b6000600760003373ffffffffffffffffffffffffffffffffffffffff1673ffffffffffffffffffffffffffffffffffffffff1681526020019081526020016000205490506000811415610ab7576040517f08c379a0000000000000000000000000000000000000000000000000000000008152600401610aae90611bff565b60405180910390fd5b610ad26006600083815260200190815260200160002061145b565b15610b12576040517f08c379a0000000000000000000000000000000000000000000000000000000008152600401610b0990611bdf565b60405180910390fd5b6003546006600083815260200190815260200160002060050154610b369190611d77565b431015610b78576040517f08c379a0000000000000000000000000000000000000000000000000000000008152600401610b6f90611c5f565b60405180910390fd5b60006006600083815260200190815260200160002060030154905060066000838152602001908152602001600020600080820160006101000a81549073ffffffffffffffffffffffffffffffffffffffff0219169055600182016000610bde919061153f565b6003820160009055600482016000905560058201600090555050600760003373ffffffffffffffffffffffffffffffffffffffff1673ffffffffffffffffffffffffffffffffffffffff16815260200190815260200160002060009055600160009054906101000a900473ffffffffffffffffffffffffffffffffffffffff1673ffffffffffffffffffffffffffffffffffffffff1663a9059cbb33836040518363ffffffff1660e01b8152600401610c98929190611adb565b602060405180830381600087803b158015610cb257600080fd5b505af1158015610cc6573d6000803e3d6000fd5b505050506040513d601f19601f82011682018060405250810190610cea919061163b565b503373ffffffffffffffffffffffffffffffffffffffff16827fb6ee3a0ef8982f0f296a13a075fe56e5fd8c1bc2282a3c5b54f12d514ed7a95660405160405180910390a35050610d39611451565b565b6000806000905060005b600880549050811015610de457600060088281548110610d8e577f4e487b7100000000000000000000000000000000000000000000000000000000600052603260045260246000fd5b906000526020600020015490506000600660008381526020019081526020016000209050610dbb8161145b565b15610dcf578380610dcb90611f35565b9450505b50508080610ddc90611f35565b915050610d45565b508091505090565b60035481565b60025481565b60088181548110610e0857600080fd5b906000526020600020016000915090505481565b610e246114f4565b6008805490508210610e6b576040517f08c379a0000000000000000000000000000000000000000000000000000000008152600401610e6290611c1f565b60405180910390fd5b600060088381548110610ea7577f4e487b7100000000000000000000000000000000000000000000000000000000600052603260045260246000fd5b906000526020600020015490506000600660008381526020019081526020016000209050806040518060a00160405290816000820160009054906101000a900473ffffffffffffffffffffffffffffffffffffffff1673ffffffffffffffffffffffffffffffffffffffff1673ffffffffffffffffffffffffffffffffffffffff16815260200160018201600280602002604051908101604052809291908260028015610f69576020028201915b815481526020019060010190808311610f55575b50505050508152602001600382015481526020016004820154815260200160058201548152505092505050919050565b60045481565b600160009054906101000a900473ffffffffffffffffffffffffffffffffffffffff1681565b610fcd611344565b6000600760003373ffffffffffffffffffffffffffffffffffffffff1673ffffffffffffffffffffffffffffffffffffffff1681526020019081526020016000205490506000811415611055576040517f08c379a000000000000000000000000000000000000000000000000000000000815260040161104c90611bff565b60405180910390fd5b6110706006600083815260200190815260200160002061145b565b6110af576040517f08c379a00000000000000000000000000000000000000000000000000000000081526004016110a690611c7f565b60405180910390fd5b6002546001600254436110c29190611dcd565b6110cc9190611d77565b6110d69190611dfe565b600660008381526020019081526020016000206005018190555060005b60088054905081101561125057816008828154811061113b577f4e487b7100000000000000000000000000000000000000000000000000000000600052603260045260246000fd5b9060005260206000200154141561123d57600860016008805490506111609190611e58565b81548110611197577f4e487b7100000000000000000000000000000000000000000000000000000000600052603260045260246000fd5b9060005260206000200154600882815481106111dc577f4e487b7100000000000000000000000000000000000000000000000000000000600052603260045260246000fd5b90600052602060002001819055506008805480611222577f4e487b7100000000000000000000000000000000000000000000000000000000600052603160045260246000fd5b60019003818190600052602060002001600090559055611250565b808061124890611f35565b9150506110f3565b503373ffffffffffffffffffffffffffffffffffffffff16817f4a7ca6c9178181481ac5c6e9ed0965213ae489c4aaf53323bd5e1f318a9d77c360066000858152602001908152602001600020600501546040516112ae9190611cda565b60405180910390a3506112bf611451565b565b69152d02c7e14af680000081565b60076020528060005260406000206000915090505481565b60066020528060005260406000206000915090508060000160009054906101000a900473ffffffffffffffffffffffffffffffffffffffff16908060030154908060040154908060050154905084565b6000600880549050905090565b6002600054141561138a576040517f08c379a000000000000000000000000000000000000000000000000000000000815260040161138190611c9f565b60405180910390fd5b6002600081905550565b6001816000016000828254019250508190555050565b600081600001549050919050565b61144e816040516024016113cc9190611bbd565b6040516020818303038152906040527f41304fac000000000000000000000000000000000000000000000000000000007bffffffffffffffffffffffffffffffffffffffffffffffffffffffff19166020820180517bffffffffffffffffffffffffffffffffffffffffffffffffffffffff838183161783525050505061148b565b50565b6001600081905550565b6000438260040154111580156114845750600082600501541480611483575043826005015410155b5b9050919050565b60008151905060006a636f6e736f6c652e6c6f679050602083016000808483855afa5050505050565b82600281019282156114e3579160200282015b828111156114e25782518255916020019190600101906114c7565b5b5090506114f0919061154d565b5090565b6040518060a00160405280600073ffffffffffffffffffffffffffffffffffffffff16815260200161152461156a565b81526020016000815260200160008152602001600081525090565b506000815560010160009055565b5b8082111561156657600081600090555060010161154e565b5090565b6040518060400160405280600290602082028036833780820191505090505090565b60008135905061159b81611fed565b92915050565b6000819050826020600202820111156115b957600080fd5b92915050565b6000815190506115ce81612004565b92915050565b6000813590506115e38161201b565b92915050565b6000602082840312156115fb57600080fd5b60006116098482850161158c565b91505092915050565b60006040828403121561162457600080fd5b6000611632848285016115a1565b91505092915050565b60006020828403121561164d57600080fd5b600061165b848285016115bf565b91505092915050565b60006020828403121561167657600080fd5b6000611684848285016115d4565b91505092915050565b60006116998383611790565b60208301905092915050565b60006116b183836119b6565b60c08301905092915050565b6116c681611e8c565b82525050565b6116d581611e8c565b82525050565b6116e481611d0f565b6116ee8184611d4a565b92506116f982611cf5565b8060005b8381101561172a578151611711878261168d565b965061171c83611d30565b9250506001810190506116fd565b505050505050565b600061173d82611d1a565b6117478185611d55565b935061175283611cff565b8060005b8381101561178357815161176a88826116a5565b975061177583611d3d565b925050600181019050611756565b5085935050505092915050565b61179981611eaa565b82525050565b6117a881611eaa565b82525050565b6117b781611ede565b82525050565b60006117c882611d25565b6117d28185611d66565b93506117e2818560208601611f02565b6117eb81611fdc565b840191505092915050565b6000611803601083611d66565b91507f576f726b657220697320616374697665000000000000000000000000000000006000830152602082019050919050565b6000611843601583611d66565b91507f576f726b6572206e6f74207265676973746572656400000000000000000000006000830152602082019050919050565b6000611883601383611d66565b91507f496e646578206f7574206f6620626f756e6473000000000000000000000000006000830152602082019050919050565b60006118c3601983611d66565b91507f576f726b657220616c72656164792072656769737465726564000000000000006000830152602082019050919050565b6000611903601083611d66565b91507f576f726b6572206973206c6f636b6564000000000000000000000000000000006000830152602082019050919050565b6000611943601183611d66565b91507f576f726b6572206e6f74206163746976650000000000000000000000000000006000830152602082019050919050565b6000611983601f83611d66565b91507f5265656e7472616e637947756172643a207265656e7472616e742063616c6c006000830152602082019050919050565b60c0820160008201516119cc60008501826116bd565b5060208201516119df60208501826116db565b5060408201516119f26060850182611a86565b506060820151611a056080850182611a86565b506080820151611a1860a0850182611a86565b50505050565b60c082016000820151611a3460008501826116bd565b506020820151611a4760208501826116db565b506040820151611a5a6060850182611a86565b506060820151611a6d6080850182611a86565b506080820151611a8060a0850182611a86565b50505050565b611a8f81611ed4565b82525050565b611a9e81611ed4565b82525050565b6000606082019050611ab960008301866116cc565b611ac660208301856116cc565b611ad36040830184611a95565b949350505050565b6000604082019050611af060008301856116cc565b611afd6020830184611a95565b9392505050565b6000608082019050611b1960008301876116cc565b611b266020830186611a95565b611b336040830185611a95565b611b406060830184611a95565b95945050505050565b60006020820190508181036000830152611b638184611732565b905092915050565b6000606082019050611b80600083018661179f565b611b8d602083018561179f565b611b9a6040830184611a95565b949350505050565b6000602082019050611bb760008301846117ae565b92915050565b60006020820190508181036000830152611bd781846117bd565b905092915050565b60006020820190508181036000830152611bf8816117f6565b9050919050565b60006020820190508181036000830152611c1881611836565b9050919050565b60006020820190508181036000830152611c3881611876565b9050919050565b60006020820190508181036000830152611c58816118b6565b9050919050565b60006020820190508181036000830152611c78816118f6565b9050919050565b60006020820190508181036000830152611c9881611936565b9050919050565b60006020820190508181036000830152611cb881611976565b9050919050565b600060c082019050611cd46000830184611a1e565b92915050565b6000602082019050611cef6000830184611a95565b92915050565b6000819050919050565b6000819050602082019050919050565b600060029050919050565b600081519050919050565b600081519050919050565b6000602082019050919050565b6000602082019050919050565b600081905092915050565b600082825260208201905092915050565b600082825260208201905092915050565b6000611d8282611ed4565b9150611d8d83611ed4565b9250827fffffffffffffffffffffffffffffffffffffffffffffffffffffffffffffffff03821115611dc257611dc1611f7e565b5b828201905092915050565b6000611dd882611ed4565b9150611de383611ed4565b925082611df357611df2611fad565b5b828204905092915050565b6000611e0982611ed4565b9150611e1483611ed4565b9250817fffffffffffffffffffffffffffffffffffffffffffffffffffffffffffffffff0483118215151615611e4d57611e4c611f7e565b5b828202905092915050565b6000611e6382611ed4565b9150611e6e83611ed4565b925082821015611e8157611e80611f7e565b5b828203905092915050565b6000611e9782611eb4565b9050919050565b60008115159050919050565b6000819050919050565b600073ffffffffffffffffffffffffffffffffffffffff82169050919050565b6000819050919050565b6000611ee982611ef0565b9050919050565b6000611efb82611eb4565b9050919050565b60005b83811015611f20578082015181840152602081019050611f05565b83811115611f2f576000848401525b50505050565b6000611f4082611ed4565b91507fffffffffffffffffffffffffffffffffffffffffffffffffffffffffffffffff821415611f7357611f72611f7e565b5b600182019050919050565b7f4e487b7100000000000000000000000000000000000000000000000000000000600052601160045260246000fd5b7f4e487b7100000000000000000000000000000000000000000000000000000000600052601260045260246000fd5b6000601f19601f8301169050919050565b611ff681611e8c565b811461200157600080fd5b50565b61200d81611e9e565b811461201857600080fd5b50565b61202481611ed4565b811461202f57600080fd5b5056fea26469706673582212202cab323c838c5ca136b67cde07ddbc88e309a3bb94d0b38503a284dbbb30496164736f6c63430008000033",
  "devdoc": {
    "kind": "dev",
    "methods": {},
    "version": 1
  },
  "userdoc": {
    "kind": "user",
    "methods": {},
    "version": 1
  },
  "storageLayout": {
    "storage": [
      {
        "astId": 10,
        "contract": "contracts/WorkerRegistration.sol:WorkerRegistration",
        "label": "_status",
        "offset": 0,
        "slot": "0",
        "type": "t_uint256"
      },
      {
        "astId": 2201,
        "contract": "contracts/WorkerRegistration.sol:WorkerRegistration",
        "label": "tSQD",
        "offset": 0,
        "slot": "1",
        "type": "t_contract(IERC20)718"
      },
      {
        "astId": 2203,
        "contract": "contracts/WorkerRegistration.sol:WorkerRegistration",
        "label": "epochLength",
        "offset": 0,
        "slot": "2",
        "type": "t_uint256"
      },
      {
        "astId": 2205,
        "contract": "contracts/WorkerRegistration.sol:WorkerRegistration",
        "label": "lockPeriod",
        "offset": 0,
        "slot": "3",
        "type": "t_uint256"
      },
      {
        "astId": 2207,
        "contract": "contracts/WorkerRegistration.sol:WorkerRegistration",
        "label": "bondAmount",
        "offset": 0,
        "slot": "4",
        "type": "t_uint256"
      },
      {
        "astId": 2210,
        "contract": "contracts/WorkerRegistration.sol:WorkerRegistration",
        "label": "workerIdTracker",
        "offset": 0,
        "slot": "5",
        "type": "t_struct(Counter)771_storage"
      },
      {
        "astId": 2228,
        "contract": "contracts/WorkerRegistration.sol:WorkerRegistration",
        "label": "workers",
        "offset": 0,
        "slot": "6",
        "type": "t_mapping(t_uint256,t_struct(Worker)2223_storage)"
      },
      {
        "astId": 2232,
        "contract": "contracts/WorkerRegistration.sol:WorkerRegistration",
        "label": "workerIds",
        "offset": 0,
        "slot": "7",
        "type": "t_mapping(t_address,t_uint256)"
      },
      {
        "astId": 2235,
        "contract": "contracts/WorkerRegistration.sol:WorkerRegistration",
        "label": "activeWorkerIds",
        "offset": 0,
        "slot": "8",
        "type": "t_array(t_uint256)dyn_storage"
      }
    ],
    "types": {
      "t_address": {
        "encoding": "inplace",
        "label": "address",
        "numberOfBytes": "20"
      },
      "t_array(t_bytes32)2_storage": {
        "base": "t_bytes32",
        "encoding": "inplace",
        "label": "bytes32[2]",
        "numberOfBytes": "64"
      },
      "t_array(t_uint256)dyn_storage": {
        "base": "t_uint256",
        "encoding": "dynamic_array",
        "label": "uint256[]",
        "numberOfBytes": "32"
      },
      "t_bytes32": {
        "encoding": "inplace",
        "label": "bytes32",
        "numberOfBytes": "32"
      },
      "t_contract(IERC20)718": {
        "encoding": "inplace",
        "label": "contract IERC20",
        "numberOfBytes": "20"
      },
      "t_mapping(t_address,t_uint256)": {
        "encoding": "mapping",
        "key": "t_address",
        "label": "mapping(address => uint256)",
        "numberOfBytes": "32",
        "value": "t_uint256"
      },
      "t_mapping(t_uint256,t_struct(Worker)2223_storage)": {
        "encoding": "mapping",
        "key": "t_uint256",
        "label": "mapping(uint256 => struct WorkerRegistration.Worker)",
        "numberOfBytes": "32",
        "value": "t_struct(Worker)2223_storage"
      },
      "t_struct(Counter)771_storage": {
        "encoding": "inplace",
        "label": "struct Counters.Counter",
        "members": [
          {
            "astId": 770,
            "contract": "contracts/WorkerRegistration.sol:WorkerRegistration",
            "label": "_value",
            "offset": 0,
            "slot": "0",
            "type": "t_uint256"
          }
        ],
        "numberOfBytes": "32"
      },
      "t_struct(Worker)2223_storage": {
        "encoding": "inplace",
        "label": "struct WorkerRegistration.Worker",
        "members": [
          {
            "astId": 2212,
            "contract": "contracts/WorkerRegistration.sol:WorkerRegistration",
            "label": "account",
            "offset": 0,
            "slot": "0",
            "type": "t_address"
          },
          {
            "astId": 2216,
            "contract": "contracts/WorkerRegistration.sol:WorkerRegistration",
            "label": "peerId",
            "offset": 0,
            "slot": "1",
            "type": "t_array(t_bytes32)2_storage"
          },
          {
            "astId": 2218,
            "contract": "contracts/WorkerRegistration.sol:WorkerRegistration",
            "label": "bond",
            "offset": 0,
            "slot": "3",
            "type": "t_uint256"
          },
          {
            "astId": 2220,
            "contract": "contracts/WorkerRegistration.sol:WorkerRegistration",
            "label": "registeredAt",
            "offset": 0,
            "slot": "4",
            "type": "t_uint256"
          },
          {
            "astId": 2222,
            "contract": "contracts/WorkerRegistration.sol:WorkerRegistration",
            "label": "deregisteredAt",
            "offset": 0,
            "slot": "5",
            "type": "t_uint256"
          }
        ],
        "numberOfBytes": "192"
      },
      "t_uint256": {
        "encoding": "inplace",
        "label": "uint256",
        "numberOfBytes": "32"
      }
    }
  }
}